:400000000010002011000000FD040000FD04000010B500F081FA0000F7B572B60122002506265C4B1A7033006B435B4C0135E0181F5D4378427901791B023B4312020A43B6
:4000400019008378C0781B040B4300061843002101F0F4FD032DE6D121000024802212314E4801F0CDFD22004D4EFC3534364C4B1433E15853000F002940521851000131DA
:4000800001337118AF43F318019101998B4207D0591E0978C9190800197802330170F4E70434202CE3D180223E4B52001A803E4BFF3A1A70C0223D4B92031A60EE223C4B17
:4000C00012021A6099223B4B3B491A6099233B4A1B0413603A4A3B4D116080213A4A890411608021394AC9041160394A3C2113600D22384B18201A60374B01321A60374AF7
:4001000013788B4328390B431370354A023113780B4313708022334BD2031A60C422324B92021C60314B1B311A60D822304B12011A6002232F4A13602F4A11602F4A136019
:4001400080222B68D20213432B6000F0D9FC2A682B4B2C4913402B602B4A2C4B09201A6010222B4B1A6080222A4B12061C600024294B1A60294A2A4B2C601A60294A2A4B31
:400180001A6000F06FFC092000F08EFC274B1C60F7BDC0461C700F40841D000080300F40041E000000600F4002600F40040001400C000140100001400400990000500F4003
:4001C00010500F4000010B4014500F4018500F4030500F402000004000800F4001700F4000700F4008000440000104400801044008030440000404400804044018040440F8
:40020000FFFFFBFFC50C00000600008004010B40080202403002024008010B40100000800000024019000080400002400C020B4010B5064C2378002B07D1054B002B02D0C3
:40024000044800E000BF0123237010BD4001002000000000001D0000084B10B5002B03D00749084800E000BF07480368002B00D110BD064B002BFBD09847F9E700000000B3
:4002800044010020001D0000C00000200000000010B500F005FB00F01DFC10BD10B50120B2B000F0FFF8012000F0FCF86521684600F0EBF86B461B78104C262B02D0012131
:4002C000200016E06B46611C581C202200F069F92100212021312022684400F062F92100412041312422684400F05BF920000121653000F0BCF832B010BDC046041D00004A
:40030000F0B5EFB062B64E4800F0B8FA00F048F900F094F94B4C230066331B78002B01D1FFF7BCFF00202EAE00F0BCF80121300000F0ABF83378444A1370022B10D00C2B62
:4003400049D0002BEED10122210040484131027001335A1E8A5CC254242BF9D125216CE020000121653000F082F800234EAD01339A00F15C043AA950202BF8D10022100080
:400380002130305C930006A901325850082AF6D100260027631C03932D4B0096019702930EA801F0BDFA0EA916A801F03DFB294E1EAB00932900284B2022300001F0A2FB42
:4003C000032300212148037001314B1EF35C43542029F9D131E00821300000F056F80025735D0EAFEB550135082DF9D104AE2A000021300001F022FC631C039300220023E1
:4004000039000092019302962A004EA816AD01F087FA4EA9280001F007FB20000121653000F025F80D2309480370002301335A1EAA5CC254202BF9D1212100F018F871E7EC
:4004400091020000041D000034020020D00100206B1D000035020020741D000010B500F013F90028FBD000F0D3F9C0B210BD70B505000E000400631B9E4204DD207800F05F
:4004800011F90134F7E7002070BD70B50D0004004618B44204D0FFF7E1FF20700134F8E7280070BD37B5050001AC01212000FFF7ECFF2378002D10D0162B02D101210E48B0
:4004C00014E0152B03D101210B4840180EE01E2B0ED109480121023008E01A00153A012AECD91E2B04D1012103480330FFF7BFFF23781B2BD8D137BD7D1D000010B501F0EB
:4005000053FB03680C2B00D1FEE7FEE710B5C0B200F0DEFAFEE70000F8B500250F49104B01394A1C14D000221F685C689E68A018B24203D0B858A0500432F8E70200DE68F4
:40054000141AA64201D020C2FAE710330139E8E701F030FBFFF7D4FEFEE7C0460100000090210000002370B50A480B4C0B4D9A002100032B00D8A95801338150302BF6D1D2
:40058000FFF74AFD80220121D20513680B43136070BDC04600000020FD0400000000000070478023F0B5A5B002928A1803900F001B0201209A422ED800200600CB09CC0BB6
:4005C000DBB22402E418E40104AD01932D1B029B9E4204D301281ED9012040421BE00028F8D123008033A74207D8029AB24204D9039A925D01362A5501E022782A5501345B
:400600009C42F0D104A9019800F054F9019B803D01330193DBE725B0F0BD00008021064A10B5136809060B4313600A2000F03CFA00F0DCF810BDC0460000064010B5054CEF
:400640002378002B03D100F063F801232370FFF7E5FF10BD5C010020084B094A196813680020994208D013680133812B00D103000449C85C1360C0B27047C046540300208C
:40068000D00200205C030020044B1868044B1A681B68904200D28130C01A704754030020D0020020134B144A30B515681C681900A54208D1114B1C680F232340082B02D062
:4006C0000F4B186015E013680133802B00D100230C68A342FCD002210A4CC0B221600A4CE0541360094B1A680A4202D11A680A431A6030BDCC020020580300200802064073
:4007000040020640800F0640D4020020880F064010B51E4A00241E4B07201A6001221D4B1D491C601D4B1A601D4B0B601D4908601D4903300C601D490A601D4A13601D4B27
:400740001C6000F0BBF903210A2000F093F91A490A2000F087F90422184B1C60184B1C60184B1C60184B1C60184B1A60184B1C601A68184B1A80184B1C60184B1C60184B94
:400780001C70184B1C60184B1C6010BD0B000002000006404000064000030640480006400700008004030640100306404400064000020640040206408D0D0000880E0640B1
:4007C000C80E0640480F0640080F0640C80F0640880F06406401002054030020D0020020DD03002058030020CC020020F021054A13688B4360390B431360034B1A88034B51
:400800001A6070471000014064010020880F064070B50A2000F052F9FFF736FF0D4D002806D00A2000F040F9FFF716FF040006E0094B0A201C6804232B6000F035F9D823B2
:400840009B0028682B60D82300029B021840204370BDC046C00F06404003064010B5040000F08CFAC021044AA40113688B431C43146000F087FA10BD00E400E010B5012481
:40088000044B1C60044B18640320FFF7E7FF034B1C6010BD80E100E00000002000E100E07F22034B18689043C0B21860C009704710000440F0B50024ADB0089403900994F8
:4008C000FF2800D9ADE0A14200D1AAE080220CA801F096F90222210001940AAB9000C058002802D00918044301920132222AF5D1002903D1002C00D096E000E000240294DD
:400900007F224E494E4D0A914E4F5A604E4A2B603A60C0462B6805911B0F06920F2B02D12B68DBB205E02A680023120F0A2A00D02B680893089E002E00D07CE000F01EFA22
:40094000424A434B116809961960089B04900792002B19D13F4A03990A920A9A09040A430AA90A9229603C49354A3960C0462968090F0F2902D11368DBB204E01168090F7C
:400980000A2900D013680893089E002E3DD1002C3BD0802231000CA801F050F9019B029A0AAC9B001A51059B069A0A937F2363602C60234B3A60C0462A68120F0F2A02D1B5
:4009C0001E68F6B204E01A68120F0A2A00D01E680896089B002B18D1204A03990A920A9A09040A431E490A922C60154A3960C0462968090F0F2902D11368DBB204E011681D
:400A0000090F0A2900D013680893099B002B04D10F4A079912680A600993049800F0B2F909E00423089306E0019A0124920098589950029064E708982DB0F0BDB6D70000E1
:400A400008000040040000400400008008010B4068010020B6D8000005000080B6D9000006000080024B8000C31818681960704740000020F8B5032605003540B5400F0055
:400A800004000635AE40AF4000F078F9A408054BA400E4182368B3431F43276000F072F9F8BDC04600E400E01F2318401E3B8340014A13607047C04600E100E01F2318404D
:400AC0001E3B8340014A13607047C04680E100E001BE7047034A044913689BB20B4313607047C0460CED00E00400FA0510B5034B1B7B584300F038F910BDC046C4000020D0
:400B0000F0B5050087B000F039F9EB1E049003932D2B5BD8304B1B789D4204D82F4B1C782F4BE4B21EE02F4B1B789D4204D82E4B1C782E4BE4B215E02D4B1B789D4204D870
:400B40002C4B1C782C4BE4B20CE02C4B1B789D4204D82B4B1C782B4BE4B203E02A4B1C782A4BE4B21B78EA1EDBB20193284B294F9A5C059302922F2A04D92A2D02D919262F
:400B80003E6008E03F233E681E40029BB34205D2204B029A1A60052000F0E6F81B4B1E4AED182B780520DBB213601C4B019A1C601B4B1A60FFF79AFF029BB34206D9059BD3
:400BC000039A05209B5C3B6000F0CEF8049800F0D9F807B0F0BDC046C0F1FF0FC1F1FF0FC2F1FF0FC3F1FF0FC4F1FF0FC5F1FF0FC6F1FF0FC7F1FF0FC8F1FF0FC9F1FF0F81
:400C0000CAF1FF0FCBF1FF0FCCF1FF0FCDF1FF0F6E2000002CFF0B4028FF0B401CFF0B4020FF0B4010B500F0A9F8C021034A090213680B43136000F0A5F810BD00010B40D3
:400C400010B5802400F09AF80749084B0A68E4011A4022430A600A6813408022120213430B6000F08FF810BD00010B40FF3FFFFF70B5050000F082F80E4B04001A68C02308
:400C80001B02134011D10C480C49054028000E680B4A3240104308600A68012B01D1FFF7C1FF200000F06EF870BDFFF7C9FF0123E9E7C04600010B400404040010020B409E
:400CC000FBFBFBFF042270B5224C2368134213D021490B6813420CD0204BDD6908681540A8430860D9699143D9611B69002B00D098470420FFF7BCFF80232268DB001A42CA
:400D000015D015490A681A420DD0144AD56908682B4098430860D169114B0B40D3615369002B00D098478020C000FFF7A1FF80232268DB021A420CD0074A12681A4204D02D
:400D4000064B9B69002B00D098478020C002FFF78FFF70BD10020B40D80000206C010020FFFBFFFF000000000230800804D0C0460138FDD1C046C046C0467047EFF3108081
:400D800072B6704780F310887047C046254B70B51B68002B00D09847234B1B685B071CD520240F2021490B680133812B00D100231F4A15681F4AAB4203D113681E4B1C70B2
:400DC00004E012681D4DD2B2EA540B601C4B1B680342E8D104221B4B1A601B4B1B689B071FD50F20194C1A4A21681368994210D013680133802B00D100231649164DC95CA5
:400E0000C9B229601360154B1B680340082BEBD104E00221124A13688B4313600222114B1A6070BD60010020CC0F064054030020D002002040030640DD0300205C030020CD
:400E400008030640C00F06408C0F064058030020CC020020D40200204002064008020640880F0640800F0640002310B5934203D0CC5CC4540133F9E710BD0023411888424B
:400E800002D003700130FAE77047002330B5934205D0C55CCC5C6C40C4540133F7E730BD70B500249C4205D00E5D155D754005550134F7E770BD0000F7B502002F321378A4
:400EC0001825594003001033019303239C4611700200082113681469CB410F31CC41116A0E004F0026405F40B6007E401F0016621E000F4323407F006640DB0061404B4056
:400F00007E40166108C2019B9342E2D163462B400AD0022B13D103688268836002604368C268C36042600AE00368426843608368C168C360044B81602B4353400360013DB0
:400F4000002DC5D1F7BDC0460079379EF8B50600150004000F00103630002022FFF795FF29002000FFF7A8FF390030002022FFF78CFF29002000FFF79FFFF8BDF7B5C6690A
:400F800049007700F60F0E43132171432026B4467F08C761844400230E001D001F00046836196F4161180096019702C001998445F1D1F7BD00239C46F0B587B00491059255
:400FC0000027049A0197D658059A0397D25800926246009C019DA4197D4102920299039A64185541C4500433AC46202BE8D12900FFF7C4FF07B0F0BDF0B58C4600232626C9
:401000007642F71787B005926246D258009200220192059A009C019DD258A4197D410292002203920299039A641A9541C45004332E00EF17202BE7D1691CFFF79FFF07B05C
:40104000F0BDF0B5A1B005900B910C920021402210A80D93002700F0F1FD10AC0D9B9F4229DA00252E000C9ABB00D3580A930B9B0A9A5B590E9300230E98190000F060FD8C
:401080006359069600930023019307930E900F91069A079B00980199801859410E9A0F9B80185941605104350E00202DDFD1216201370434D2E70024250010AAA318186AAB
:4010C00026220023002100F03BFD10AB1B5908950293002309930393089D099E029A039B5219734180185941059B0D0018510434202CE2D11800FFF741FF21B0F0BD10B5D1
:4011000008230200FFF79DFF10BD002330B5C558CC586C4014406540C550CD586C40CC500433402BF3D130BD0100F0B5132687B020310391B44601000290002566462B005C
:401140002F000A68B6185F41049605971700059E6744B446039E80C1B142EED16146FFF70DFF2C0013204042C117029B029D1B68009300230193009A019B12184B411800C8
:40118000D917039B04C502951443AB42EDD12000002101225242D31712184B41180007B0F0BD00000B00F0B52033A3B01E93002307000C001F921293236800251D93002315
:4011C0001C931393544B3E1F07931F9BAA009B581D9A089300230898190000F0B1FC736808900991029300230393139B14930023159314981599029A039B12184B4108987D
:4012000009998018594108900991099B0A9300230B930A9B1393002D03D1079B089A534307933E4BAA00D0580023079A190000F087FC089B209021910493002305931C9B2D
:4012400016930023179316981799049A059B12184B41209821998018594100230C910D931C91002D00D0306001350436082DACD10C980D990A9A0B9B12184B411299043419
:401280000E9100210F910E980F9912184B4112931E9BFA619C428FD120490024002200238C4639596546009100212D5901911895002500980199801859411995189D199ED8
:4012C000401BB141385104340A00CB17202CE8D10024260012998A185342029300230F49029A6058190000F02BFC0B0039591A96109100211B91119102001A9D1B9E1098B8
:4013000011994019714180185941385104340E00202CE3D123B0F0BD1B7E54129C200000F0B50400082587B01F000FAB1B78302101931600FFF7A1FD23492A0028312000A5
:4013400000F05EFC2A000C99601900F059FC20000121FFF7B1FD10220D992000FFF795FD01992000FFF7A8FD0D99102220001031FFF78BFD01992000FFF79EFD1422237808
:40138000601C53402370053A0E99FFF77EFD20000121FFF791FD0E9920000F310522FFF774FD2A0002A904A80296039700F028FC201D2A0004A9FFF768FD01212000FFF76B
:4013C0007BFD07B0F0BDC0469C20000010B5202200F016FC10BD10B5202200F011FC10BDF0B50D000400170085B0190903930B0102920193EE18AE4211D01023390028004F
:401400002200FFF74DFD29001022200000F0F8FB02212000FFF750FD10351037EBE70F25039B2B401D1E0ED0019A029B944663441900220030002B00FFF732FD2A003100E3
:401440002000FFF711FD012265192B78022153402B70E37B813A5340E3732000FFF72CFD05B0F0BDF7B5050007000300040006002035803740332A0001003800019360363F
:40148000FFF798FD2A0028002100FFF7B5FD320001992000FFF78EFD320030000199FFF7ABFD39003000FFF72AFE29002000FFF726FE310022000198FFF77CFD22003100E7
:4014C0003000FFF799FD39003800FFF718FE29002800FFF714FE2A0039002000FFF78CFD064A2800012321003032FFF7AAFD3A0029002800FFF75EFDF7BDC0469C2000004A
:40150000F0B595B003930300050004AC40332000029111000193FFF759FF80212800FFF7ACFC01232B662B60019BFF2607CC07C307CC07C306CC06C300220299F310CC5C35
:40154000039B002B0DD0F31D0E2B02D807239C4307E03300F83B072B03D87F231C403F3B1C43072333401C412F00E407E417624001992800FFF7C9FD2800FFF773FF603712
:40158000202204A90CA800F03BFB39003800FFF7B6FD38000CA9FFF7B2FD019920370800FFF7ADFD280029002030FFF7A8FD2A0039002800FFF720FD39002800FFF79FFD50
:4015C0002200013EB9D201992800FFF79EFD15B0F0BDF0B5FD240127A9B0060068461D00FFF78EFF08A908230A0018A8FFF729FD072C03DCEB2323413B4203D008A918A898
:40160000FFF77DFD18A9013CEDD26846FFF777FD6846FFF789FD694604003000FFF7DBFE0020854200D0200029B0F0BD054A10B500233432FFF7CDFF002801D000F0ACFA3E
:4016400010BDC0469C20000010B50B4C10212000FFF713FC226B636B012000212260636012184B412000002122636363FFF724FC10233934237010BD90010020F8B50E00C3
:4016800004000D092D014519A5420BD00E4F00213800FFF711FC20001022390000F0B0FA1034F1E70F2334001C4009D0064E00213000FFF701FC220031002800FFF7D4FB55
:4016C000FFF7C2FFF8BDC04690010020F7B50F2400AF90B06C44240924010E007860302120001500FFF7C9FB214908225431200000F086FA00230121E3602000A660FFF784
:40170000DBFB102229002000FFF7BFFB02212000FFF7D2FB2900102210312000FFF7B5FB02212000FFF7C8FB7D6833091B01EB187B607B68AB420AD000212000FFF7BCFB91
:4017400028001022210000F05BFA1035F1E70F231E4008D000212000FFF7AEFB320021007868FFF781FBFFF76FFFBD46F7BDC0469C200000F7B5060015000191002D25D047
:401780003700102330373C781C1B05D121003000FFF792FB3C7010342F00A54200D927000023310030310A780198D218B218C05C1478013360401070BB42F2D10A78ED1AF4
:4017C000D2180A70019AD2180192D7E72800FEBDF0B591B00F000500002114006846402200F02CFA6A4604230E200826137067335370023393700C3BD3703221023368446E
:4018000013715671FFF739FB6B463200981D390000F0F6F920226B46002C07D01120210068441A74402400F0EBF901E01C74140028003421FFF721FB220069462800FFF7C6
:4018400099FF002011B0F0BD224BF7B51700103A04000D009A4239D8002301A93A0ACB708A7053425A4102239A1A0A70D2184F70FFF780FF23001F2130331B783E09E31848
:401880001A7836014A401A708022E37B52425340E373AE19AE420AD000212000FFF70CFB28001022210000F0ABF91035F2E70F2300251F40AF420BD029002000FFF7FCFA1B
:4018C0003A0021003000FFF7CFFA01E001256D422800FEBDEFFF0000F0B50F0016001D0004000E498FB000225C3101A8FFF770FF3900202201A8FFF73DFF3100202201A867
:40190000FFF738FF2900402201A8FFF733FF2022210001A8FFF798FF0FB0F0BD9C2000001C23F0B51F2491B004AF7861396190B0F8181421FA60FFF7A1FE7B696C44143380
:401940007B607B693A692433BB607B6924092401934206D11900FA68B86800F05AF9BB683B61FE230393E23BFB1802937B6D200001933B6D0093BA6CFB6CFFF7D1FCFB680E
:401980003D691E093601AE19AE420AD0290010222000FFF77AFA02212000FFF78DFA1035F2E70F25FB681D4004D02A0031002000FFF76BFA1F2265192B78200053402B7081
:4019C0002500E37B9F3A5340E3730221FFF774FA1035796D2000F822FFF7B8FA29001422786900F00DF9FF2303937B69200002937B6D01933B6D0093BA6CFB6CFFF790FCC1
:401A0000FB683A69B9682000FFF7EAFC796D20000822FFF79BFA10222900786800F0F0F80020BD460DB0F0BD70B50500040020350A0028002021FFF749FE29002000FFF7B6
:401A4000F5FD200020222100403000F0D9F870BD10B50022FFF7BCFE10BD000070B50E0034001500BEB0203440222EA9FFF7ECFE20002021FFF702FE20492A005C3121A898
:401A8000FFF7A6FE2100202221A8FFF773FE2EA9202221A8FFF76EFE2022210021A8FFF7D3FE21003000FFF7C1FD2A002EAB2032310001A8FFF710FF210009A8FFF786FC3F
:401AC000290011A8FFF782FC01A919A8FFF77EFC19AA11A909A8FFF765FB11A82021FFF7CCF9074A09A92C3211A8FFF75BFB200011A9FFF770FC00203EB070BD9C200000E3
:401B00001C21000070B58EB004000D0001A819001600FFF79DFF002801D001200DE03200290001A8FFF726FE0028F6D1129A210001A8FFF793FF431E984140420EB070BDD1
:401B4000F0B54F464646C0B41604360C9946330005042C0C070C150C63437E436F4365431C0CAD1964199C46A64203D980235B02984647446346250CEF191D044B464A43EC
:401B800043432D0C240464199918C91920000CBC90469946F0BDC04610B5062000F080F80120FEF7B3FC0000014B18687047C0463C0100200E4B70B500251E000D4CE41AC8
:401BC000A410A54204D0AB00F35898470135F8E700F0CCFA084B00251E00084CE41AA410A54204D0AB00F35898470135F8E770BD78210000782100007821000080210000FC
:401C0000002310B59A4203D0CC5CC4540133F9E710BD10B5884202D98B18984201D3002305E09B1A013A08D3995C8154FAE7934203D0CC5CC4540133F9E710BD030082184D
:401C4000934202D019700133FAE7704770B504000D001F2904D916230360012040421EE0426C002A04D08B00D2181368002B08D1200000F031F82A000100200000F01AF8AA
:401C80000DE00020012B0AD0591C03D117332360013004E00024280014609847200070BD10B5034B01001868FFF7D0FF10BDC0463C010020002370B5064C050008001100B9
:401CC000236000F015F8431C03D12368002B00D02B6070BDE003002010B500F001F810BD58220120014B40421A607047E003002058220120014B40421A607047E00300203B
:401D00000000000021000000000000000000000000000000000000000000000000000000000000000000000000000000000000000000000000000000000000000000000082
:401D4000000000000037333635363337353732363937343739000000000000000000000000000000000000000020005F5F736565645F5F005F5F7369676E5F5F0017183D30
:401D80001D00000000300F40800000310F40000300400F400004821000000008F300C318000041040000003C00420F00F003F37F0C001C00E30008000000046700180C3C74
:401DC0000041FF0000041C1F2C200F00C040008028220000000426030400010C00E021FFFFFF62A0F0410C000000000002120404040400000001000000000000400200104D
:401E000030100010101200000000000000000000000000000000000003000F4014300F4031310F406A320F4053330F4009400F400B410F4002600F4080388172820F0202B6
:401E40000408120115011E0426012E02300132083301340236043E153F0454185604580459045B045F01000802800488052109020B010D280E0210221402172A18041988F3
:401E80001B011D2A1E011F28231026A727042D802F283204362A3EAA452247444C244E0854025A015E08600463426E146F01762A772A8740C0FCC2E9C4F5CA70CCE2CEF014
:401EC000D0F0D220D641D80D001301010204030A040A05130614081309130A0C0C400E2011101208142016C018E019021B091C031E14261528802A202B042CE03010310C53
:401F000032E03303340F35103A203E013F014036410146B047CE483849FF4AFF4BFF4EF04F44500C54015604580459045A045B045F0166C06A406B028414858087138C0C1C
:401F40008E718F0C900992D094DC952C9622974399719A039B069F08A010A171A240A30EA410A6ACAA20B0E0B1C0B30FB41FB530B922BA02BB08BF10C002C540C9FFCA07F1
:401F8000CBFFCC40CD20CEF0CF05D008D804D904DA04DF01E040E1A8E240E320004002100480051509080A080B400E240F421090120815881710184019011A081D101E6011
:401FC0001F042004210823402408275029012A022D202F043090311C371139083B403E143F0140044410460248804E08510452085404561057015D185E405F026780804014
:40200000828083018404874289108B019180921494889608970199089B019D209E809F50A404B310B402B541B630B710C0F5C2FEC4EECA21CCAECEEAD054D220D6F0D88058
:40204000EE800E086D016E0873028702C280DA80DC60E6400A105F088210850195019B08B308C210D680E080E21010011101030405060708090A0B0C0E0F101112131415FB
:40208000161718191B1C1D1E1F2021222325262728292A2B2E2F303132333435EDD3F55C1A631258D69CF7A2DEF9DE1400000000000000000000000000000010066B7878CA
:4020C00032353600067362783235360841DB0100090000000000000000000000000000000000000000000000000000000000000007647262673235360000000000000000E2
:40210000000000000000000000000000000000000000000000000000000000000000000000000000000000000000000000000000000000000000000000000000000000009F
:402140000000000000000000010F9C44E31106A447938568A71B0ED065BEF517D273ECCE3D9A307C1B41990343000000F8B5C046F8BC08BC9E4670475902000065050000F3
:40218000F8B5C046F8BC08BC9E46704731020000A0210000C000002080000000A802000000000000010000000000E02EC05D00001800000000366E01040404000000000066
:4021C0000000000000000000000000000000000000000000000000000000000068210000000000000000000000000000000000000000000000000000000000000000000056
:4022000000000000000000000000000000000000000000000000000000000000DC0000200000000000000000000000000000000000000000000000000000000000000000A2
:40224000000000000000000000000000000000000000000000000000000000000000000000000000000000000000000000000000000000000000000000000000000000005E
:40228000000000000000000000000000000000000000000000000000000000000000000000000000000000000000000000000000000000000000000000000000000000001E
:4022C00000000000000000000000000000000000000000000000000000000000000000000000000000000000000000000000000000000000000000000000000000000000DE
:40230000000000000000000000000000000000000000000000000000000000000000000000000000000000000000000000000000000000000000000000000000000000009D
:0200000490303A
:02000000E17AA3
:0200000490402A
:200000000000000000000000000000000000000000000000000000000000000000000000E0
:0200000490501A
:0C000000000204C81193110104D2F30D9A
:0200000490600A
:0100000001FE
:00000001FF