:400000000010002011000000D5050000D505000010B500F0E7FA0000F7B572B60122514B00211A7080225048D20001F06EF980220024D20000214D4801F067F9FF252200AE
:400040004B4E20364A4BE15853000F00294052185100013101337118AF43F318019101998B4207D0591E0978C9190800197802330170F4E70434202CE4D180223D4B5200D8
:400080001A803D4BFF3A1A70C0223C4B92021A60EE223B4B12021A6099223A4B3A491A6099233A4A1B041360394A102611608021384A090511608021374A89041160374A44
:4000C0003C2113600D22364B364D1A60364B01321A60364A0F2013788B4328390B431370334A023113780B4313708022314BD2031A60E022304B12021E60304B1B311A6052
:40010000D8222F4B12011A6002232E4A13602E4A11602E4A136080222B68D20213432B6000F052FD2A682A4B2A4913402B602A4A2A4B09201A602A4B063A1E60294B1C60AA
:400140000024294B1A60294A294B2C601A60294A294B1A6000F0ECFC092000F00BFD274B1C60F7BD1C700F4000300F4000400F40BC1B000000600F4002600F40040001401F
:400180000C000140100001400400990000500F4010500F4014500F4018500F4030500F402000004000010B4000800F4001700F4000700F40080004400001044008010440A5
:4001C00008030440000404400804044018040440FFFFFBFF8D0D00000600008004010B40080202403002024008010B400A000080000002400F000080400002400C020B4006
:4002000010B5064C2378002B07D1054B002B02D0044800E000BF0123237010BD40010020000000004C130000084B10B5002B03D00749084800E000BF07480368002B00D182
:4002400010BD064B002BFBD09847F9E700000000440100204C130000C00000200000000010B50D21034800F05CF900F07FFB00F095FC10BD7A1B0000F0B58026002495B083
:4002800036012B4D102229192A48103400F00FFB0195B442F5D104AC012000F061F940220021200001F031F82349200001F03FF80121200000F035F90121200000F042F9C0
:4002C000200001F03CF81D4E421C3100200000F0EEFA1B4D0121280000F023F90121200000F030F9310002ABDF1D23782531012238003B7000F0DBFA0121280000F011F9D4
:4003000000263B789E4210DA0121200000F01AF9019B310159181022200000F0C8FA0121280000F0FEF80136EBE715B0F0BDC04650130000881B0000B11B0000501B0000A4
:40034000981B00007FB510250C4C0D4E21782A0009017118684600F0CFFF2900684600F0E0F821782A0009017118064800F09FFA7F2223780133134023707FBD5C01002011
:4003800050130000881B0000F0B599B004AF62B6574800F0D9FA00F089FA00F077F9554CE31DDB7F002B09D1FFF766FF21000D2301222631F8187A7300F079FA002000F0B3
:4003C000CFF80823FA18D018012100F0BBF83B7C494A1370062B0DD0082B20D0042BEDD1464D2021280000F0E1FE05234448002103700AE0072300214148037001314B1E82
:40040000E35C43542429F9D106E001318B00043BEB5843542029F8D100F083F8CEE70823FA18D018302100F08DF86B467B60354BC0B01B6800220393334B04AE0293002357
:40044000009201930132FF323049300000F0D6FE002801D020001EE00500012327499A00043AF05C8A58904200D001250133212BF5D13378082B04D020000121273000F086
:4004800050F8002D30D10236F37FA61DF27FFB732000934204D90121273000F042F823E00121283000F03DF820000121293000F038F80F230121F81800F033F8FA7BF37F42
:4004C00021009B1ABB730E2325310122F81800F0EEF9FB7B9D4203DAFFF734FF0135F8E72021064800F062FE7B689D4666E7C04661020000501B000038020020A002002015
:40050000D0010020340200209A1B00003902002010B500F0E1F80028FBD000F0A1F9C0B210BD70B5060008000D00340000F0E2F8A31B9D4204DD207800F0DCF80134F7E7EF
:40054000002070BD70B506000D000400A31B9D4204DDFFF7DDFF20700134F7E7280070BD30B5040089B005216846FFF7EBFF1449684600F0D2FE051E0BD0684600F0DFFE90
:40058000C1B26846FFF7CDFF0E49684600F0CFFE0EE00521002C04D00B48FFF7C2FF290003E00A48FFF7BDFF21006846FFF7CAFF0749684600F0B1FE0028D4D109B030BDCA
:4005C000A31B0000A91B0000AD1B0000B31B0000B91B000010B500F063FE03680C2B00D1FEE7FEE7F8B500250F49104B01394A1C14D000221F685C689E68A018B24203D0C1
:40060000B858A0500432F8E70200DE68141AA64201D020C2FAE710330139E8E700F046FEFFF7B2FEFEE7C04601000000C81F0000002370B50A480B4C0B4D9A002100032B88
:4006400000D8A95801338150302BF6D1FFF7E4FC80220121D20513680B43136070BDC04600000020D5050000000000008021064A10B5136809060B4313600A2000F07AFA11
:4006800000F0DCF810BDC0460000064010B5054C2378002B03D100F063F801232370FFF7E5FF10BD60010020084B094A196813680020994208D013680133812B00D10300DF
:4006C0000449C85C1360C0B27047C046B0030020A803002024030020044B1868044B1A681B68904200D28130C01A7047B0030020A8030020134B144A30B515681C681900A0
:40070000A54208D1114B1C680F232340082B02D00F4B186015E013680133802B00D100230C68A342FCD002210A4CC0B221600A4CE0541360094B1A680A4202D11A680A4318
:400740001A6030BD20030020AC0300200802064040020640800F0640B5030020880F064010B51E4A00241E4B07201A6001221D4B1D491C601D4B1A601D4B0B601D49086053
:400780001D4903300C601D490A601D4A13601D4B1C6000F0F9F903210A2000F0D1F91A490A2000F0C5F90422184B1C60184B1C60184B1C60184B1C60184B1A60184B1C6023
:4007C0001A68184B1A80184B1C60184B1C60184B1C70184B1C60184B1C6010BD0B0000020000064040000640000306404800064007000080040306401003064044000640DB
:400800000002064004020640550E0000880E0640C80E0640480F0640080F0640C80F0640880F064068010020B0030020A8030020B4030020AC03002020030020F021054A65
:4008400013688B4360390B431360034B1A88034B1A6070471000014068010020880F064070B50A2000F090F9FFF736FF0D4D002806D00A2000F07EF9FFF716FF040006E0DE
:40088000094B0A201C6804232B6000F073F9D8239B0028682B60D82300029B021840204370BDC046C00F06404003064070478023F0B5A5B002928A1803900F001B020120E7
:4008C0009A422ED800200600CB09CC0BDBB22402E418E40104AD01932D1B029B9E4204D301281ED9012040421BE00028F8D123008033A74207D8029AB24204D9039A925D8A
:4009000001362A5501E022782A5501349C42F0D104A9019800F034F8019B803D01330193DBE725B0F0BD000010B5040000F08AFAC021044AA40113688B431C43146000F04F
:4009400085FA10BD00E400E010B50124044B1C60044B18640320FFF7E7FF034B1C6010BD80E100E00000002000E100E07F22034B18689043C0B21860C0097047100004402F
:40098000F0B50024ADB0089403900994FF2800D9ADE0A14200D1AAE080220CA800F0ACFC0222210001940AAB9000C058002802D00918044301920132222AF5D1002903D11E
:4009C000002C00D096E000E0002402947F224E494E4D0A914E4F5A604E4A2B603A60C0462B6805911B0F06920F2B02D12B68DBB205E02A680023120F0A2A00D02B6808935E
:400A0000089E002E00D07CE000F01CFA424A434B116809961960089B04900792002B19D13F4A03990A920A9A09040A430AA90A9229603C49354A3960C0462968090F0F2905
:400A400002D11368DBB204E01168090F0A2900D013680893089E002E3DD1002C3BD0802231000CA800F051FC019B029A0AAC9B001A51059B069A0A937F2363602C60234B00
:400A80003A60C0462A68120F0F2A02D11E68F6B204E01A68120F0A2A00D01E680896089B002B18D1204A03990A920A9A09040A431E490A922C60154A3960C0462968090F6D
:400AC0000F2902D11368DBB204E01168090F0A2900D013680893099B002B04D10F4A079912680A600993049800F0B0F909E00423089306E0019A01249200985899500290B5
:400B000064E708982DB0F0BDB6D7000008000040040000400400008008010B406C010020B6D8000005000080B6D9000006000080024B8000C31818681960704740000020E2
:400B4000F8B5032605003540B5400F0004000635AE40AF4000F076F9A408054BA400E4182368B3431F43276000F070F9F8BDC04600E400E01F2318401E3B8340014A136054
:400B80007047C04600E100E01F2318401E3B8340014A13607047C04680E100E0034A044913689BB20B4313607047C0460CED00E00400FA0510B5034B1B7B584300F038F924
:400BC00010BDC046C4000020F0B5050087B000F039F9EB1E049003932D2B5BD8304B1B789D4204D82F4B1C782F4BE4B21EE02F4B1B789D4204D82E4B1C782E4BE4B215E0BF
:400C00002D4B1B789D4204D82C4B1C782C4BE4B20CE02C4B1B789D4204D82B4B1C782B4BE4B203E02A4B1C782A4BE4B21B78EA1EDBB20193284B294F9A5C059302922F2AF6
:400C400004D92A2D02D919263E6008E03F233E681E40029BB34205D2204B029A1A60052000F0E6F81B4B1E4AED182B780520DBB213601C4B019A1C601B4B1A60FFF79AFFD5
:400C8000029BB34206D9059B039A05209B5C3B6000F0CEF8049800F0D9F807B0F0BDC046C0F1FF0FC1F1FF0FC2F1FF0FC3F1FF0FC4F1FF0FC5F1FF0FC6F1FF0FC7F1FF0F3E
:400CC000C8F1FF0FC9F1FF0FCAF1FF0FCBF1FF0FCCF1FF0FCDF1FF0FB41E00002CFF0B4028FF0B401CFF0B4020FF0B4010B500F0A9F8C021034A090213680B43136000F0F6
:400D0000A5F810BD00010B4010B5802400F09AF80749084B0A68E4011A4022430A600A6813408022120213430B6000F08FF810BD00010B40FF3FFFFF70B5050000F082F853
:400D40000E4B04001A68C0231B02134011D10C480C49054028000E680B4A3240104308600A68012B01D1FFF7C1FF200000F06EF870BDFFF7C9FF0123E9E7C04600010B4084
:400D80000404040010020B40FBFBFBFF042270B5224C2368134213D021490B6813420CD0204BDD6908681540A8430860D9699143D9611B69002B00D098470420FFF7BCFF04
:400DC00080232268DB001A4215D015490A681A420DD0144AD56908682B4098430860D169114B0B40D3615369002B00D098478020C000FFF7A1FF80232268DB021A420CD004
:400E0000074A12681A4204D0064B9B69002B00D098478020C002FFF78FFF70BD10020B40D800002070010020FFFBFFFF000000000230800804D0C0460138FDD1C046C046F0
:400E4000C0467047EFF3108072B6704780F310887047C046254B70B51B68002B00D09847234B1B685B071CD520240F2021490B680133812B00D100231F4A15681F4AAB4206
:400E800003D113681E4B1C7004E012681D4DD2B2EA540B601C4B1B680342E8D104221B4B1A601B4B1B689B071FD50F20194C1A4A21681368994210D013680133802B00D1AA
:400EC00000231649164DC95CC9B229601360154B1B680340082BEBD104E00221124A13688B4313600222114B1A6070BD64010020CC0F0640B0030020A80300204003064049
:400F0000B40300202403002008030640C00F06408C0F0640AC03002020030020B50300204002064008020640880F0640800F0640002310B5934203D0CC5CC4540133F9E7F4
:400F400010BD00234118884202D003700130FAE77047002330B5934205D0C55CCC5C6C40C4540133F7E730BD70B500249C4205D00E5D155D754005550134F7E770BD00006A
:400F8000F7B502002F3213781825594003001033019303239C4611700200082113681469CB410F31CC41116A0E004F0026405F40B6007E401F0016621E000F4323407F00A8
:400FC0006640DB0061404B407E40166108C2019B9342E2D163462B400AD0022B13D103688268836002604368C268C36042600AE00368426843608368C168C360044B8160E5
:401000002B4353400360013D002DC5D1F7BDC0460079379EF8B50600150004000F00103630002022FFF795FF29002000FFF7A8FF390030002022FFF78CFF29002000FFF7D5
:401040009FFFF8BDF0B50400082587B01F000FAB1B78302101931600FFF773FF23492A002831200000F048F92A000C99601900F043F920000121FFF783FF10220D992000DB
:40108000FFF767FF01992000FFF77AFF0D99102220001031FFF75DFF01992000FFF770FF14222378601C53402370053A0E99FFF750FF20000121FFF763FF0E9920000F31C2
:4010C0000522FFF746FF2A0002A904A80296039700F012F9201D2A0004A9FFF73AFF01212000FFF74DFF07B0F0BDC046E41E0000F0B504000D0016001F001B0985B01B014D
:401100000293CB1803920193019BAB4211D01023310028002200FFF727FF31001022200000F0EAF802212000FFF72AFF10351036EAE70F231F400FD0029A039B944663449C
:401140001D002200290001983B00FFF70DFF3A0029002000FFF7ECFE0122E7193B78022153403B70E37B813A5340E3732000FFF707FF05B0F0BD000010B50B4C10212000AA
:40118000FFF7DFFE226B636B012000212260636012184B412000002122636363FFF7F0FE10233934237010BD90010020F8B50E0004000D092D014519A5420BD00E4F002102
:4011C0003800FFF7DDFE20001022390000F094F81034F1E70F2334001C4009D0064E00213000FFF7CDFE220031002800FFF7A0FEFFF7C2FFF8BDC04690010020F0B51F24A8
:401200008DB004AF90B06C44240938600D002401232A3FD90823243A7A60FA18D61814311022300000F068F8FF2303937B6C200001933B6C02950093BA6BFB6BFFF702FF72
:401240002A007B68243239682000FFF751FF0822796C2000FFF7DEFE23001033FB6000231A00F968F058C9180968043341400A43102BF6D100231800BC60B968C918043373
:401280000860302BF9D10020824205D079683868FFF757FE01204042BD4609B0F0BD0000014B18687047C0463C0100200E4B70B500251E000D4CE41AA410A54204D0AB00F8
:4012C000F35898470135F8E700F06CFE084B00251E00084CE41AA410A54204D0AB00F35898470135F8E770BDB01F0000B01F0000B01F0000B81F0000002310B59A4203D00C
:40130000CC5CC4540133F9E710BD03008218934202D019700133FAE7704702780B78002A03D0013001319A42F7D0D01A7047031C0A7801311A700133002AF9D170470023F3
:40134000C25C0133002AFBD1581E7047000000002A2A2A2A2A454D5054592A2A2A2A2A000000000000000000000000000000000000000000000000000000000000000000C5
:40138000000000000000000000000000000000000000000000000000000000000000000000000000000000000000000000000000000000000000000000000000000000002D
:4013C00000000000000000000000000000000000000000000000000000000000000000000000000000000000000000000000000000000000000000000000000000000000ED
:4014000000000000000000000000000000000000000000000000000000000000000000000000000000000000000000000000000000000000000000000000000000000000AC
:40144000000000000000000000000000000000000000000000000000000000000000000000000000000000000000000000000000000000000000000000000000000000006C
:40148000000000000000000000000000000000000000000000000000000000000000000000000000000000000000000000000000000000000000000000000000000000002C
:4014C00000000000000000000000000000000000000000000000000000000000000000000000000000000000000000000000000000000000000000000000000000000000EC
:4015000000000000000000000000000000000000000000000000000000000000000000000000000000000000000000000000000000000000000000000000000000000000AB
:40154000000000000000000000000000000000000000000000000000000000000000000000000000000000000000000000000000000000000000000000000000000000006B
:40158000000000000000000000000000000000000000000000000000000000000000000000000000000000000000000000000000000000000000000000000000000000002B
:4015C00000000000000000000000000000000000000000000000000000000000000000000000000000000000000000000000000000000000000000000000000000000000EB
:4016000000000000000000000000000000000000000000000000000000000000000000000000000000000000000000000000000000000000000000000000000000000000AA
:40164000000000000000000000000000000000000000000000000000000000000000000000000000000000000000000000000000000000000000000000000000000000006A
:40168000000000000000000000000000000000000000000000000000000000000000000000000000000000000000000000000000000000000000000000000000000000002A
:4016C00000000000000000000000000000000000000000000000000000000000000000000000000000000000000000000000000000000000000000000000000000000000EA
:4017000000000000000000000000000000000000000000000000000000000000000000000000000000000000000000000000000000000000000000000000000000000000A9
:401740000000000000000000000000000000000000000000000000000000000000000000000000000000000000000000000000000000000000000000000000000000000069
:401780000000000000000000000000000000000000000000000000000000000000000000000000000000000000000000000000000000000000000000000000000000000029
:4017C00000000000000000000000000000000000000000000000000000000000000000000000000000000000000000000000000000000000000000000000000000000000E9
:4018000000000000000000000000000000000000000000000000000000000000000000000000000000000000000000000000000000000000000000000000000000000000A8
:401840000000000000000000000000000000000000000000000000000000000000000000000000000000000000000000000000000000000000000000000000000000000068
:401880000000000000000000000000000000000000000000000000000000000000000000000000000000000000000000000000000000000000000000000000000000000028
:4018C00000000000000000000000000000000000000000000000000000000000000000000000000000000000000000000000000000000000000000000000000000000000E8
:4019000000000000000000000000000000000000000000000000000000000000000000000000000000000000000000000000000000000000000000000000000000000000A7
:401940000000000000000000000000000000000000000000000000000000000000000000000000000000000000000000000000000000000000000000000000000000000067
:401980000000000000000000000000000000000000000000000000000000000000000000000000000000000000000000000000000000000000000000000000000000000027
:4019C00000000000000000000000000000000000000000000000000000000000000000000000000000000000000000000000000000000000000000000000000000000000E7
:401A000000000000000000000000000000000000000000000000000000000000000000000000000000000000000000000000000000000000000000000000000000000000A6
:401A40000000000000000000000000000000000000000000000000000000000000000000000000000000000000000000000000000000000000000000000000000000000066
:401A80000000000000000000000000000000000000000000000000000000000000000000000000000000000000000000000000000000000000000000000000000000000026
:401AC00000000000000000000000000000000000000000000000000000000000000000000000000000000000000000000000000000000000000000000000000000000000E6
:401B000000000000000000000000000000000000000000000000000000000000000000000000000000000000000000000000000000000000000000000000000000000000A5
:401B400000000000000000000000000000000000626C616E6B20757569642100000000000000000000000000000000000000000000000000000000210920496E20696E74F9
:401B80006572727570740A002A2A2A2A2A454D5054592A2A2A2A2A004B005749544844524157005245414459004241440048534D5F500048534D5F4E00474F0003000F4041
:401BC00059300F403A310F406E320F4052330F4009400F400B410F4002600F40800F817A823804330501060C0A0814331604180A1A342403261428402A1530103260330128
:401C0000340F38083A203E013F0440264103450C460B470E481549FF4AFF4BFF4EF04F44500C54015604580459045A045B045F0166C06A406B028110826384BC8508864371
:401C400088FF89388C088D048F80909F926093039403957F98E3993C9A1C9B429C109F04A002A120A404A547A738A81CAC01AD3CAF41B05CB180B23CB41FB53FB680B74015
:401C8000B980BA22BB28BE40D602D713D804D904DB04DF010004030804280501060209080B140D020E26103814401601172818041A501B081C411D261E041F022204242848
:401CC000262827822D012E042F0235013628378039083E2A3F804004410848285080510458105A495C0163406D516E026F10762A77288740C0F6C2F6C4F6CAD0CCF0CEF28B
:401D0000D006D204D68FD80102030308060308030D010E030F02102112181304141316641708180319031C421D021E181F01230424F028F029032C80308031033270330441
:401D400034033508360C3E403F14402441064203440145C047E0482249FF4AFF4BFF4C624DA04EF04F41500C54185604580459045A045B045F016640670269106A306B1038
:401D80006D106E106F1284108531860C874689318B0E8C10940996109713996C9B039E039F08A014A180A41CA602A80CAA11AB4CB130B34AB50FB61FB780B902BB28BF4148
:401DC000C005C540C9FFCA07CBFFCC40CD20CEF0CF05D008D804D904DA04DF01E040E1A8E240E320008404480501060408080A110C400E2A0F801080131415401620171087
:401E00001A011B801D931E202252231425102601272028082B802D102E223008329034403504371A38043B103F8245A24604470848404A8E4E084F025008560259205B20DD
:401E40005D02652066806780811082C1834087408D12904C91509210971499049B129C409D019E01A080A120A208A408A610A740AD04AE01C0F5C2F5C4EECAA5CCFECE9658
:401E8000D0F0D228D680D8B00E086E08712077028702C280DA80DC60E6400E406010801082408520A520C220D840E020E210E68010011101030405060708090A0B0C0E0F16
:401EC000101112131415161718191B1C1D1E1F2021222325262728292A2B2E2F3031323334350000EDD3F55C1A631258D69CF7A2DEF9DE140000000000000000000000008E
:401F000000000010066B787832353600067362783235360841DB01000900000000000000000000000000000000000000000000000000000000000000076472626732353632
:401F40000000000000000000000000000000000000000000000000000000000000000000000000000000000000000000000000000000000000000000000000000000000061
:401F8000010F9C44E31106A447938568A71B0ED065BEF517D273ECCE3D9A307C1B41990343000000F8B5C046F8BC08BC9E4670472902000031060000F8B5C046F8BC08BCED
:401FC0009E46704701020000D81F0000C000002080000000F8020000000000000100000000004C1D983A00000F000000C0E1E4000404040000000000000000000000000016
:402000000000000000000000000000000000000000000000A01F000000000000000000000000000000000000000000000000000000000000000000000000000000000000E1
:402040000000000000000000000000000000000000000000DC0000200000000000000000000000000000000000000000000000000000000000000000000000000000000064
:402080000000000000000000000000000000000000000000000000000000000000000000000000000000000000000000000000000000000000000000000000000000000020
:4020C00000000000000000000000000000000000000000000000000000000000000000000000000000000000000000000000000000000000000000000000000000000000E0
:40210000000000000000000000000000000000000000000000000000000000000000000000000000000000000000000000000000000000000000000000000000000000009F
:40214000000000000000000000000000000000000000000000000000000000000000000000000000000000000000000000000000000000000000000000000000000000005F
:0200000490303A
:02000000960C5C
:0200000490402A
:200000000000000000000000000000000000000000000000000000000000000000000000E0
:0200000490501A
:0C000000000204C81193110004CFA79F58
:0200000490600A
:0100000002FD
:00000001FF