:400000000010002011000000350700003507000010B500F097FBC04670B5164C23688022D202134323600F2000F002FF2268124B13402360114A124B1A601022114B1A6042
:400040001032114B1A6080221206104B1A60002525600F4A0F4B1A600F4A104B1A601049092000F097FE092000F07EFE0D4B1D6070BDC04600010B40FFFFFBFF0600008066
:4000800004010B40080202403002024008010B400A000080000002400F00008040000240411000000C020B4010B572B60122364B1A7000240FE035486200131959000B00B8
:4000C000411889881A5AC31858880004104300F02BFB0134E4B2012CEDD92C490C312C48643000F007FB802252002A4B1A80FF3A294B1A70C0229202284B1A60EE221202CF
:40010000274B1A609922274B1A6099231B04264A13602649264A116080210905254A116080218904244A1160244A13600D22244B1A600132234B1A6023490B782E32934349
:4001400014221343DBB20B70204A117816230B43DBB213708022D2031D4B1A6010221D4B1A60E02212021C4B1A60D82212011B4B1A6002231A4A136031211A4A11601A4A89
:400180001360FFF749FF10BD1C700F40801F00000022000000600F4002600F40040001400C0001401000014000500F400400990010500F4014500F4018500F4030500F40BE
:4001C0002000004000800F4001700F4000700F400800044000010440080104400803044000040440080404401804044010B5064C2378002B07D1054B002B02D0044800E0FE
:4002000000BF0123237010BD4001002000000000B8160000084B10B5002B03D00749084800E000BF07480368002B00D110BD064B002BFBD09847F9E7000000004401002009
:40024000B8160000C00000200000000010B5002303E0CC182478C45401339342F9DB10BD10B50D21034800F0E7F900F05BFC00F0C9FD10BD5C1F000030B5A1B0002407E02F
:4002800023013E49C91810223D4800F0D9FB01347F2CF5DD012000F0EBF97F246C440121200000F0D7F92378262B04D00121354800F0C2F960E0202117A800F0CBF9314CC0
:4002C000651C0121280000F0B7F920210FA800F0C1F90121280000F0AFF9242106A800F0B9F9211D202217A800F0AAFB2100243120220FA800F0A4FB21004431242206A81E
:4003000000F09EFB20006830012100F095F97F246C440121200000F09DF92378282B04D00121184800F088F926E017246C440121200000F08FF9012212496C31200000F036
:400340007FFB2478013C10E0102101A800F082F923010A49C918102201A800F071FB012108486D3000F068F9013C002CECDA01210448013000F060F921B030BDBC1600005F
:400380006C1F0000BC1E000030B587B017246C44012214496C312000FFF758FF217800291ED00139104D09016918102201A8FFF74DFF102101A800F03FF917246C442178D2
:4003C0000139090169181022084800F039FB2378013B2370012203496C31200000F030FB07B030BDBC1E0000BC1600006C1F000010B50400202101F081F820220249703164
:40040000200000F01DFB10BDBC1E000030B5B5B062B6814800F078FB00F010FB00F0F2F97E4B1B7C002B0DD1012000F021F9FFF723FF33A80123037001227849103100F056
:40044000FFFA02E0002000F013F9002000F010F915246C440121200000F0FCF82378062B0AD0DAB2062A02D8042B15D0EDE7082B68D00A2B1DD0E8E724226949443120A8A8
:40048000FFF7E4FE01216548113000F0D5F8242120A800F0D1F8D8E720A8FFF7A9FF01215E48123000F0C8F8202120A800F0C4F8CBE75B4C211D06AD20222800FFF7C6FECF
:4004C0002100703120220EA8FFF7C0FE4C2120A800F0C0F80395514B1433029300220023009201934C3220A916A801F031F8002804D001214A4800F09FF8A6E716AB1B78FF
:400500000A2B04D00121464800F096F89DE720220EA95920684401F0AFF8002804D001213F4800F089F890E70EA8FFF761FF01213A481C3000F080F804217920684400F0FF
:400540007BF882E7364C211D06AD20222800FFF77DFE2100703120220EA8FFF777FE21006C31012217206844FFF770FE462120A800F070F80395294B143302930022002350
:4005800000920193463220A916A800F0E1FF002804D00121224800F04FF856E716AB1B78082B04D001211E4800F046F84DE720220EA95920684401F05FF8002804D0012181
:4005C000174800F039F840E70EA8FFF711FF212316AAD35C16226A44137017226A441278934204D901210E4800F026F82DE701210A481D3000F020F801211620684400F082
:400600001BF8002402E0FFF7BFFE013416236B441B789C42F7DB18E7610200003C1F0000BC1E000010B500F017F90028FBD000F0DFF9C0B210BDC04670B506000D000024D6
:4006400004E0305D00F01CF90134E4B2AC42F8D370BDC046F8B507000E00002405E03D19FFF7E0FF28700134E4B2B442F7D3F8BD10B582B00400012101A8FFF7EBFF002CAD
:4006800018D001AB1B78162B04D101211848FFF7D3FF26E0152B05D1012115480130FFF7CBFF1EE01E2B1CD1012111480230FFF7C3FF16E001AB1B78152B04D101210C48CE
:4006C000FFF7BAFF0DE0162B04D101210848FFF7B3FF06E01E2B04D1012105480330FFF7ABFF01AB1B781B2BC5D102B010BDC0467C1F0000F0B50025002711E0BB00C658F2
:40070000F3B2FF22964308E06A008A181478A419527822700135013BDBB2002BF4D10137072FEBD9F0BDC04610B50A00002100F0BBFF10BD10B500F073FF03680C2B00D1AC
:40074000FEE7FEE770B50F4E0F4D13E029686B68AC68002202E001C901C30432A242FAD1E868002202E0002102C304328242FAD11035013E002EE9D100F058FFFFF746FE03
:40078000FEE7C04601000000A823000010B500230AE0032B03D89A000949505800E009489900094A885001332F2BF2D9FFF77CFC8022D205116801230B43136010BDC046AD
:4007C00000000000350700000000002010B50A2000F0CAFA10BDC04610B500F0F7F810BD10B500F085F810BD10B5054A1368802109060B431360FFF7E9FFFFF7EDFF10BD2A
:400800000000064010B5064B1B78002B04D1FFF7E7FF0122024B1A70FFF7E6FF10BDC0465C010020094B1A68094B1B689A420BD0074B1B680133812B00D10023054AD05C40
:40084000C0B2034A136000E0002070476002002058020020D4010020074B1B68074A1268934203D3054A1068181A04E0034A10681B1A8133180070476002002058020020FD
:40088000144B1A68144B1B689A4208D1134B1B680F221340082B02D0114B186019E00D4B1A680132802A00D100220B4B1B689A42FBD002230B490B60C0B20B49885405498B
:4008C0000A600A4A1268134203D1084A11680B43136070475C020020D00100200802064040020640800F064068020020880F064010B51E4A1E4B1A6000241E4B1C60012295
:400900001D4B1A601D4B1E490B6007201D4908601D490C601D490A601D4A13601D4B1C60033000F02BFA03210A2000F045FA1A490A2000F02FFA194B1C60194B1C60194BB7
:400940001C60194B1C600422184B1A60184B1C601A68184B1A80184B1C60184B1C60184B1C70184B1C60184B1C6010BD0B0000020000064040000640480006400700008094
:400980000003064004030640100306404400064000020640040206400D110000880E0640C80E0640480F0640080F0640C80F0640880F06406401002060020020580200209F
:4009C000640200205C020020D001002005490B68F0229343603A13430B60034B1A88034B1A6070471000014064010020880F064010B50A2000F0C2F9FFF72EFF002806D021
:400A00000A2000F0B1F9FFF70DFF040007E0094B1C680422084B1A600A2000F0A5F9064B1868D82292001A600002D8239B021840204310BD40030640C00F06407047C0462E
:400A4000F0B54F464646C0B4A1B0804617000E008A1880231B029A4229D8CC0BC909FF230B40994624024C44E4010020002519E0B44207D3BD4205D24246525D6946CA5449
:400A8000013502E022786946CA540134013300E000237F2BECD96946484600F061F801239C46E144BD4203D20028F1D000E00120012801D90120404221B00CBC9046994679
:400AC000F0BDC046014B18647047C0460000002010B5040000F012FB044A1368C0218B43A4011C43146000F00DFB10BD00E400E00122014B1A60704700E100E00122014B8F
:400B00001A60704780E100E010B50400FFF7F6FF2000FFF7D7FF0320FFF7DAFFFFF7E8FF10BDC046034B1868C0B27F2290431860C009704710000440024B1A68024B1A606B
:400B40000020704708010B4068010020024B1A68024B1A60002070476801002008010B40F0B5A7B00500002325932493FF2800D9E4E0002900D1E1E0802204A800F08BFD9F
:400B8000022300200021002408E09A0002AE9259002A02D0891810431C000133212BF4D9002903D1002803D1002602E0002600E00126002E06D0A30002AA9F58002202A9F0
:400BC0005A5000E00027604B02937F2303935F4B02AA1A605E495F4A1160C0461B681B0F1B07F0221206934204D1584B1B68FF2213400BE0554B1B681B0F1B07A0221206C4
:400C0000934202D0514B1B6800E000232593259B002B00D094E000F071FA0190FFF78CFF2490259B002B25D14B4B0293029A2B0413430293454B02AA1A604849454A1160DA
:400C4000C0461B681B0F1B07F0221206934204D13E4B1B68FF2213400BE03C4B1B681B0F1B07A0221206934202D0384B1B6800E000232593259B002B56D1002E54D08022C2
:400C8000002104A800F010FDA40002ABE7502E4B02937F2303932D4B02AA1A602C492D4A1160C0461B681B0F1B07F0221206934204D1264B1B68FF2213400BE0234B1B68B4
:400CC0001B0F1B07A0221206934202D01F4B1B6800E000232593259B002B25D1204B0293029B2D041D430295184B02AA1A601D49184A1160C0461B681B0F1B07F022120618
:400D0000934204D1114B1B68FF2213400BE00F4B1B681B0F1B07A0221206934202D00B4B1B6800E000232593249B002B02D1FFF70DFF2490019800F0E5F901E004232593F3
:400D4000259827B0F0BDC046B6D70000080000400400008004000040B6D8000005000080B6D90000060000801F2318401E3B8340014A13607047C04600E100E01F231840DB
:400D80001E3B8340014A13607047C04680E100E001BE704770B504000D001F2802D90020FFF7F6FF1034A40080239B059C4664442068256070BDC04670B504000E0003292A
:400DC00002D90020FFF7E4FF1F2C02D90020FFF7DFFF03252540ED00063500F08FF9A408A400074B9C46644421680323AB4099430B003100A9401943216000F083F970BD9B
:400E000000E400E0034A13681B041B0C02490B43136070470CED00E00400FA0510B5034B1B7B584300F060F910BDC046C4000020F0B557464E46C0B483B0040000F05EF935
:400E40000190E71E2D2F74D83F4B1B78DBB29C4208D83E4B1B78DBB29A463D4B1B78DBB2994631E03B4B1B78DBB29C4208D83A4B1B78DBB29A46394B1B78DBB2994623E03C
:400E8000374B1B78DBB29C4208D8364B1B78DBB29A46354B1B78DBB2994615E0334B1B78DBB29C4208D8324B1B78DBB29A46314B1B78DBB2994607E02F4B1B78DBB29A4628
:400EC0002E4B1B78DBB299462D4BDE5D2F2E09D92A2C07D919222B4B1A60052000F004F9192503E0274B1D683F231D40B54206D9234BDA5D234B1A60052000F0F5F81F4B6F
:400F00009C4664442378DBB21F4A13601F4B52461A601F4B4A461A600520FFF77FFFB5420AD2174BDA5D174B1A60052000F0DCF802E00020FFF72CFF019800F0E3F803B02F
:400F40000CBC91469A46F0BDC0F1FF0FC1F1FF0FC2F1FF0FC3F1FF0FC4F1FF0FC5F1FF0FC6F1FF0FC7F1FF0FC8F1FF0FC9F1FF0FCAF1FF0FCBF1FF0FCCF1FF0FCDF1FF0F78
:400F8000842200002CFF0B4028FF0B401CFF0B4020FF0B40034B1868C0231B02184000D00120704700010B4010B500F0A7F8044A1368C02109020B43136000F0A3F810BD97
:400FC00000010B4010B500F099F808490A68084B1A408024E40122430A600A6813408022120213430B6000F08DF810BD00010B40FF3FFFFF70B5050000F080F80400FFF705
:40100000C9FF002803D0FFF7DDFF012100E0002108482840084A1568084B2B40184310601368012901D1FFF7BFFF200000F06AF870BDC0460404040010020B40FBFBFBFFBF
:4010400010B5244B1B685B0715D5234B1B685B070ED5224BD969042001401F4C22688A432260DA698243DA611B69002B00D098470420FFF7BFFF174B1B685B0518D5164BD3
:401080001B685B0510D5154BD9698022D2001140114802688A430260D969114A0A40DA615B69002B00D098478020C000FFF7A2FF084B1B685B030CD5074B1B685B0304D537
:4010C000064B9B69002B00D098478020C002FFF791FF10BD10020B40D80000206C010020FFFBFFFF000000000230800804D0C0460138FDD1C046C046C0467047EFF310805C
:4011000072B6704780F310887047C04610B5274B1B68002B00D09847254B1B685B071DD5244B1B680133812B00D10023224A1268934205D1214B1B682022214B1A7006E0C9
:401140001E4A1268D2B21F49CA541A4A13601E4B1B681B07E4D104221C4B1A601C4B1B689B0721D51B4B1A681B4B1B689A4213D0194B1B680133802B00D10023174AD25C87
:40118000D2B217490A60144A1360164B1B680F221340082BE6D104E0134A136802218B4313600222114B1A6010BDC04660010020CC0F0640600200205802002040030640AA
:4011C00064020020D401002008030640C00F06408C0F06405C020020D0010020680200204002064008020640880F0640800F0640F0B55F4656464D464446F0B418239C46E6
:4012000052E0B700C71908233A68DA411300341DA400A2468244172251460968D14135000835AD00AB4683445A46126854005C40A14614000C40A400A0464C4645466C4079
:401240005D462C601C004C401D0015436D006540544625604A400B40DB0053403B60013600E00026032ECCD903236246134002D0022B0DD014E04268036843608368C16843
:401280008160C3600D4B61460B435340036007E003688268026083604368C2684260C36001235B429846C4446346002BD9D13CBC90469946A246AB46F0BDC0460079379E20
:4012C00010B52F22835C59408154FFF791FF10BD70B505000E001400002307E01A001032AA18F05C11784140117001331F2BF5D921002800FFF7E4FF002307E01A00103219
:40130000AA18F05C11784140117001331F2BF5D921002800FFF7D4FF70BDC046F0B587B00700009201930D9C0E9E0FAB1D78002303E0FA180021117001332F2BF9D9082292
:4013400032492C31380000F0A6F93800083008220C9900F0A0F901213800FFF7B1FF002305E0F918E05C0A7842400A7001330F2BF7D929003800FFF7A3FF002306E0F918E2
:40138000E218107C0A7842400A7001330F2BF6D929003800FFF794FF3A78142353403B70002306E05A1CB918F05C0B7843400B7013000E2BF6D901213800FFF781FF0023B0
:4013C00006E0F918F218D07B0A7842400A700133042BF6D9009B019C02930394082202A904A800F058F9002307E01A1DBA1804A9C85C1178414011700133072BF5D9012106
:401400003800FFF75DFF07B0F0BDC046B4220000F8B54F464646C0B404000E00150098460023994617E04B461F01002305E0F818295CE25C4A40325401330F2BF7D9E919C6
:401440001022200000F027F902212000FFF738FF01239C46E14443461B099945E3D30F214346194018D04B461B019846002308E04246D0182A5C9446E25C67467A403254A3
:4014800001339942F4D8002304E0EA184046125CE25401338B42F8D361180A78012353400B70E37B802252425340E37302212000FFF706FF0CBC90469946F8BD10B5002350
:4014C00004E00D4AD2180021117001330F2BF8D9094C226B636B226063600120002112184B412263636300212000FFF7E9FE10223923E25410BDC04690010020F8B5060095
:401500000F0000240BE0114D00212800FFF7D8FE200130181022290000F0BDF801343B099C42F0D30F231F400DD000210748FFF7C7FE2401002304E0E2180449C95CB15461
:4015400001339F42F8D8FFF7B9FFF8BD90010020F0B54F464646C0B48BB004AF0500884690B01F266E44360933019946232A4ED9143146462436243A140010220823F81870
:4015800000F089F8FF230393434602937B6C01933B6C0093BA6BFB6B4846FFF7BFFE2300320029004846FFF733FF0822796C4846FFF78EFE4B4610337B600026002309E02F
:4015C0007A689900521810680822BA185258424016430133032BF3D94B463B60002305E03A68990051180020086001330B2BF7D9002E06D100200CE0EA180021117001335C
:4016000000E000239C42F7D80120404201E001204042BD4607B00CBC90469946F0BDC046014B18687047C0463C0100200E4B70B500251E000D4CE41AA410A54204D0AB00D1
:40164000F35898470135F8E700F09CFE084B00251E00084CE41AA410A54204D0AB00F35898470135F8E770BD9023000090230000902300009823000030B50024A24208D09A
:40168000035D651C0C5DA34201D0181B02E02C00F4E7002030BD002310B59A4203D0CC5CC4540133F9E710BD03008218934202D019700133FAE77047000000002A2A2A2A08
:4016C0002A454D5054592A2A2A2A2A00000000000000000000000000000000000000000000000000000000000000000000000000000000000000000000000000000000005F
:4017000000000000000000000000000000000000000000000000000000000000000000000000000000000000000000000000000000000000000000000000000000000000A9
:401740000000000000000000000000000000000000000000000000000000000000000000000000000000000000000000000000000000000000000000000000000000000069
:401780000000000000000000000000000000000000000000000000000000000000000000000000000000000000000000000000000000000000000000000000000000000029
:4017C00000000000000000000000000000000000000000000000000000000000000000000000000000000000000000000000000000000000000000000000000000000000E9
:4018000000000000000000000000000000000000000000000000000000000000000000000000000000000000000000000000000000000000000000000000000000000000A8
:401840000000000000000000000000000000000000000000000000000000000000000000000000000000000000000000000000000000000000000000000000000000000068
:401880000000000000000000000000000000000000000000000000000000000000000000000000000000000000000000000000000000000000000000000000000000000028
:4018C00000000000000000000000000000000000000000000000000000000000000000000000000000000000000000000000000000000000000000000000000000000000E8
:4019000000000000000000000000000000000000000000000000000000000000000000000000000000000000000000000000000000000000000000000000000000000000A7
:401940000000000000000000000000000000000000000000000000000000000000000000000000000000000000000000000000000000000000000000000000000000000067
:401980000000000000000000000000000000000000000000000000000000000000000000000000000000000000000000000000000000000000000000000000000000000027
:4019C00000000000000000000000000000000000000000000000000000000000000000000000000000000000000000000000000000000000000000000000000000000000E7
:401A000000000000000000000000000000000000000000000000000000000000000000000000000000000000000000000000000000000000000000000000000000000000A6
:401A40000000000000000000000000000000000000000000000000000000000000000000000000000000000000000000000000000000000000000000000000000000000066
:401A80000000000000000000000000000000000000000000000000000000000000000000000000000000000000000000000000000000000000000000000000000000000026
:401AC00000000000000000000000000000000000000000000000000000000000000000000000000000000000000000000000000000000000000000000000000000000000E6
:401B000000000000000000000000000000000000000000000000000000000000000000000000000000000000000000000000000000000000000000000000000000000000A5
:401B40000000000000000000000000000000000000000000000000000000000000000000000000000000000000000000000000000000000000000000000000000000000065
:401B80000000000000000000000000000000000000000000000000000000000000000000000000000000000000000000000000000000000000000000000000000000000025
:401BC00000000000000000000000000000000000000000000000000000000000000000000000000000000000000000000000000000000000000000000000000000000000E5
:401C000000000000000000000000000000000000000000000000000000000000000000000000000000000000000000000000000000000000000000000000000000000000A4
:401C40000000000000000000000000000000000000000000000000000000000000000000000000000000000000000000000000000000000000000000000000000000000064
:401C80000000000000000000000000000000000000000000000000000000000000000000000000000000000000000000000000000000000000000000000000000000000024
:401CC00000000000000000000000000000000000000000000000000000000000000000000000000000000000000000000000000000000000000000000000000000000000E4
:401D000000000000000000000000000000000000000000000000000000000000000000000000000000000000000000000000000000000000000000000000000000000000A3
:401D40000000000000000000000000000000000000000000000000000000000000000000000000000000000000000000000000000000000000000000000000000000000063
:401D80000000000000000000000000000000000000000000000000000000000000000000000000000000000000000000000000000000000000000000000000000000000023
:401DC00000000000000000000000000000000000000000000000000000000000000000000000000000000000000000000000000000000000000000000000000000000000E3
:401E000000000000000000000000000000000000000000000000000000000000000000000000000000000000000000000000000000000000000000000000000000000000A2
:401E40000000000000000000000000000000000000000000000000000000000000000000000000000000000000000000000000000000000000000000000000000000000062
:401E800000000000000000000000000000000000000000000000000000000000000000000000000000000000000000000000000000000000000000000000000021200000E1
:401EC0000000000000000000000000000000000000000000000000000000000000000000010203040506070809000102030405060708090001020304050607080900010258
:401F00000000000000000000000000000000000000000000000000000000000000000000000000002700000000290000000000000000000000000000000000000000000051
:401F40000000000000000000000000000007050000000000000000000B090000496E20696E746572727570740A0000002A2A2A2A2A454D5054592A2A2A2A2A0017183C1CB9
:401F800000300F40000400400F400004800F817A823804330501060C0A0814331604180A1A342403261428402A15301032603301340F38083A203E013F0440264103450C2D
:401FC000460B470E481549FF4AFF4BFF4EF04F44500C54015604580459045A045B045F0166C06A406B028110826384BC8508864388FF89388C088D048F80909F92609303D5
:402000009403957F98E3993C9A1C9B429C109F04A002A120A404A547A738A81CAC01AD3CAF41B05CB180B23CB41FB53FB680B740B980BA22BB28BE40D602D713D804D90413
:40204000DB04DF010004030804280501060209080B140D020E26103814401601172818041A501B081C411D261E041F0222042428262827822D012E042F0235013628378022
:4020800039083E2A3F804004410848285080510458105A495C0163406D516E026F10762A77288740C0F6C2F6C4F6CAD0CCF0CEF2D006D204D68FD80102030308060308038C
:4020C0000D010E030F02102112181304141316641708180319031C421D021E181F01230424F028F029032C80308031033270330434033508360C3E403F1440244106420315
:40210000440145C047E0482249FF4AFF4BFF4C624DA04EF04F41500C54185604580459045A045B045F016640670269106A306B106D106E106F1284108531860C874689310C
:402140008B0E8C10940996109713996C9B039E039F08A014A180A41CA602A80CAA11AB4CB130B34AB50FB61FB780B902BB28BF41C005C540C9FFCA07CBFFCC40CD20CEF07F
:40218000CF05D008D804D904DA04DF01E040E1A8E240E320008404480501060408080A110C400E2A0F80108013141540162017101A011B801D931E202252231425102601FC
:4021C000272028082B802D102E223008329034403504371A38043B103F8245A24604470848404A8E4E084F025008560259205B205D02652066806780811082C183408740B6
:402200008D12904C91509210971499049B129C409D019E01A080A120A208A408A610A740AD04AE01C0F5C2F5C4EECAA5CCFECE96D0F0D228D680D8B00E086E087120770275
:402240008702C280DA80DC60E6400E406010801082408520A520C220D840E020E210E6801001110103000F4059300F403A310F406E320F4052330F4009400F400B410F400E
:4022800002600F40030405060708090A0B0C0E0F101112131415161718191B1C1D1E1F2021222325262728292A2B2E2F303132333435000041DB0100EDD3F55C1A63125868
:4022C000D69CF7A2DEF9DE1400000000000000000000000000000010066B7878323536000673627832353608010F9C44E31106A447938568A71B0ED065BEF517D273ECCEE1
:402300003D9A307C1B4199030900000000000000000000000000000000000000000000000000000000000000076472626732353600000000000000000000000000000000D6
:40234000000000000000000000000000000000000000000000000000000000000000000000000000000000000000000000000000000000000000000000000000000000005D
:4023800043000000F8B5C046F8BC08BC9E467047150200008D070000F8B5C046F8BC08BC9E467047ED010000B8230000C000002080000000A80100000000000001000000D0
:4023C00000004C1D983A00000F000000C0E1E4000404040000000000000000000000000000000000000000000000000000000000000000008023000000000000000000005F
:4024000000000000000000000000000000000000000000000000000000000000000000000000000000000000000000000000000000000000DC0000200000000000000000A0
:40244000000000000000000000000000000000000000000000000000000000000000000000000000000000000000000000000000000000000000000000000000000000005C
:40248000000000000000000000000000000000000000000000000000000000000000000000000000000000000000000000000000000000000000000000000000000000001C
:4024C00000000000000000000000000000000000000000000000000000000000000000000000000000000000000000000000000000000000000000000000000000000000DC
:40250000000000000000000000000000000000000000000000000000000000000000000000000000000000000000000000000000000000000000000000000000000000009B
:0200000490303A
:02000000D1E24B
:0200000490402A
:200000000000000000000000000000000000000000000000000000000000000000000000E0
:0200000490501A
:0C000000000204C81193110004D0E37545
:0200000490600A
:0100000002FD
:00000001FF