:400000000010002011000000A9050000A905000010B500F0D7FAC04670B5164C23688022D20213432360182000F042FE2268124B13402360114A124B1A601022114B1A60D7
:400040001032114B1A6080221206104B1A60002525600F4A0F4B1A600F4A104B1A601049092000F0D7FD092000F0BEFD0D4B1D6070BDC04600010B40FFFFFBFF06000080E8
:4000800004010B40080202403002024008010B4010000080000002401900008040000240C10E00000C020B4070B572B60122414B1A7000240FE040486200131959000B00B4
:4000C000411889881A5AC31858880004104300F061FA0134E4B2022CEDD9002411E0364EA2001319590071188D8AC88A000428430A8B498B09041143802200F051FA013409
:40010000E4B2002CEBD02C4920312C48583000F027FA802252002A4B1A80FF3A294B1A70C0229203284B1A60EE221202274B1A609922274B1A6099231B04264A13602649ED
:40014000264A116080218904254A11608021C904244A1160244A13600D22244B1A600132234B1A6023490B782E32934314221343DBB20B70204A117816230B43DBB21370EC
:400180008022D2031D4B1A6020221D4B1A60C42292021C4B1A60D82212011B4B1A6002231A4A136031211A4A11601A4A1360FFF733FF70BD1C700F40742300007425000020
:4001C00000600F4002600F40040001400C0001401000014000500F400400990010500F4014500F4018500F4030500F402000004000800F4001700F4000700F40080004409E
:4002000000010440080104400803044000040440080404401804044010B5064C2378002B07D1054B002B02D0044800E000BF0123237010BD4001002000000000DC22000015
:40024000084B10B5002B03D00749084800E000BF07480368002B00D110BD064B002BFBD09847F9E70000000044010020DC220000C00000200000000010B50D21034800F02F
:4002800001F900F08FFB00F0FDFC10BD2823000030B591B0012000F029F901210F4800F0F1F8684600F0FEF80D4C20222100684600F0CEF90B4D0121280000F0E3F868464E
:4002C00000F0F0F8210020312422684600F0C0F90121280000F0D6F811B030BD38230000E02200003C23000010B5D6B062B6574800F04AFB00F0AAF900F008FA4423544AE4
:40030000D35C002B0BD1FFF7C3FF5820FF3068440123037001224E49443100F099F9002000F0E4F8012135A800F0D0F8494B1B78494A1370022B1FD00C2B60D0002BEED1E7
:400340000122464B1A70002307E05A1C4049CB182021595C414B99541300232BF5DD24213E4800F08FF8DAE75A1C3A49885C9B0015A95850130000E000231F2BF4DD00237C
:4003800007E01A0021323349885C990005AA88500133072BF5DD2E4B0393314B02930022002300920193083205A90DA801F02EFE2C4C0DA9200001F043FE203400942A4B0F
:4003C000202215A9294801F073FE0322234B1A70002305E05A1C2549C95C204B995413001F2BF7DD20211D4800F04CF897E75A1C1849885C9B000DA95850130000E0002351
:40040000072BF4DD124B0393154B0293002200230092019308320DA915A801F0F7FD15A9104801F00DFE0D220C4B1A70002305E05A1C0C49C95C094B995413001F2BF7DD48
:400440002021064800F01EF869E7C04679020000E0220000DC02002038020020D0010020402300005C0200204C2300003C02002010B500F075F90028FBD000F03DFAC0B26E
:4004800010BDC04670B506000D00080000F07CF9002403E0305D00F077F90134AC42F9DB002070BDF0B583B00600FFF7E1FF01900700002404E03519FFF7DAFF287001344E
:4004C000BC42F8DB019803B0F0BDC046F8B507000E00002405E03D19FFF7CAFF28700134E4B2B442F7D32000F8BDC04610B588B004006846FFF7D6FF1449684601F0CCFE0E
:40050000002809D0684601F0D1FEC1B26846FFF7B9FF0F4B009310E0002C07D006210D48FFF7B0FF6846FFF7BDFF06E006210A48FFF7A8FF6846FFF7B5FF0849684601F0D8
:40054000ABFE0028D5D108B010BDC0465823000042414400602300006823000070230000F0B50025002711E0BB00C658F3B2FF22964308E06A008A181478A41952782270A3
:400580000135013BDBB2002BF4D10137072FEBD9F0BDC04610B50A00002101F02BFE10BD10B501F009FE10BD10B501F0D9FD03680C2B00D1FEE7FEE710B5C0B200F028FBF3
:4005C000FEE7C04670B50F4E0F4D13E029686B68AC68002202E001C901C30432A242FAD1E868002202E0002102C304328242FAD11035013E002EE9D101F0B8FDFFF774FED7
:40060000FEE7C046010000008027000010B500230AE0032B03D89A000949505800E009489900094A885001332F2BF2D9FFF73CFD8022D205116801230B43136010BDC04691
:4006400000000000A9050000000000207047C046F0B54F464646C0B4A1B0804617000E008A1880231B029A4229D8CC0BC909FF230B40994624024C44E4010020002519E06C
:40068000B44207D3BD4205D24246525D6946CA54013502E022786946CA540134013300E000237F2BECD96946484600F099F901239C46E144BD4203D20028F1D000E001208E
:4006C000012801D90120404221B00CBC90469946F0BDC04610B50A2000F086FA10BDC04610B500F0F7F810BD10B500F085F810BD10B5054A1368802109060B431360FFF7BB
:40070000E9FFFFF7EDFF10BD0000064010B5064B1B78002B04D1FFF7E7FF0122024B1A70FFF7E6FF10BDC0465C010020094B1A68094B1B689A420BD0074B1B680133812B19
:4007400000D10023054AD05CC0B2034A136000E000207047FC0300207803002004040020074B1B68074A1268934203D3054A1068181A04E0034A10681B1A8133180070479A
:40078000FC03002078030020144B1A68144B1B689A4208D1134B1B680F221340082B02D0114B186019E00D4B1A680132802A00D100220B4B1B689A42FBD002230B490B60C2
:4007C000C0B20B49885405490A600A4A1268134203D1084A11680B431360704700040020740300200802064040020640800F06407C030020880F064010B51E4A1E4B1A6071
:4008000000241E4B1C6001221D4B1A601D4B1E490B6007201D4908601D490C601D490A601D4A13601D4B1C60033000F0E7F903210A2000F001FA1A490A2000F0EBF9194B1A
:400840001C60194B1C60194B1C60194B1C600422184B1A60184B1C601A68184B1A80184B1C60184B1C60184B1C70184B1C60184B1C6010BD0B0000020000064040000640EA
:4008800048000640070000800003064004030640100306404400064000020640040206408D0F0000880E0640C80E0640480F0640080F0640C80F0640880F06406401002009
:4008C000FC0300207803002085040020000400207403002005490B68F0229343603A13430B60034B1A88034B1A6070471000014064010020880F064010B50A2000F07EF95E
:40090000FFF72EFF002806D00A2000F06DF9FFF70DFF040007E0094B1C680422084B1A600A2000F061F9064B1868D82292001A600002D8239B021840204310BD4003064068
:40094000C00F0640014B18647047C0460000002010B5040000F012FB044A1368C0218B43A4011C43146000F00DFB10BD00E400E00122014B1A60704700E100E00122014BAE
:400980001A60704780E100E010B50400FFF7F6FF2000FFF7D7FF0320FFF7DAFFFFF7E8FF10BDC046034B1868C0B27F2290431860C009704710000440024B1A68024B1A60ED
:4009C0000020704708010B4068010020024B1A68024B1A60002070476801002008010B40F0B5A7B00500002325932493FF2800D9E4E0002900D1E1E0802204A801F0DCFBD1
:400A0000022300200021002408E09A0002AE9259002A02D0891810431C000133212BF4D9002903D1002803D1002602E0002600E00126002E06D0A30002AA9F58002202A971
:400A40005A5000E00027604B02937F2303935F4B02AA1A605E495F4A1160C0461B681B0F1B07F0221206934204D1584B1B68FF2213400BE0554B1B681B0F1B07A022120645
:400A8000934202D0514B1B6800E000232593259B002B00D094E000F071FA0190FFF78CFF2490259B002B25D14B4B0293029A2B0413430293454B02AA1A604849454A11605C
:400AC000C0461B681B0F1B07F0221206934204D13E4B1B68FF2213400BE03C4B1B681B0F1B07A0221206934202D0384B1B6800E000232593259B002B56D1002E54D0802244
:400B0000002104A801F076FBA40002ABE7502E4B02937F2303932D4B02AA1A602C492D4A1160C0461B681B0F1B07F0221206934204D1264B1B68FF2213400BE0234B1B68D0
:400B40001B0F1B07A0221206934202D01F4B1B6800E000232593259B002B25D1204B0293029B2D041D430295184B02AA1A601D49184A1160C0461B681B0F1B07F022120699
:400B8000934204D1114B1B68FF2213400BE00F4B1B681B0F1B07A0221206934202D00B4B1B6800E000232593249B002B02D1FFF70DFF2490019800F0E5F901E00423259375
:400BC000259827B0F0BDC046B6D70000080000400400008004000040B6D8000005000080B6D90000060000801F2318401E3B8340014A13607047C04600E100E01F2318405D
:400C00001E3B8340014A13607047C04680E100E001BE704770B504000D001F2802D90020FFF7F6FF1034A40080239B059C4664442068256070BDC04670B504000E000329AB
:400C400002D90020FFF7E4FF1F2C02D90020FFF7DFFF03252540ED00063500F08FF9A408A400074B9C46644421680323AB4099430B003100A9401943216000F083F970BD1C
:400C800000E400E0034A13681B041B0C02490B43136070470CED00E00400FA0510B5034B1B7B584300F060F910BDC046C4000020F0B557464E46C0B483B0040000F05EF9B7
:400CC0000190E71E2D2F74D83F4B1B78DBB29C4208D83E4B1B78DBB29A463D4B1B78DBB2994631E03B4B1B78DBB29C4208D83A4B1B78DBB29A46394B1B78DBB2994623E0BE
:400D0000374B1B78DBB29C4208D8364B1B78DBB29A46354B1B78DBB2994615E0334B1B78DBB29C4208D8324B1B78DBB29A46314B1B78DBB2994607E02F4B1B78DBB29A46A9
:400D40002E4B1B78DBB299462D4BDE5D2F2E09D92A2C07D919222B4B1A60052000F004F9192503E0274B1D683F231D40B54206D9234BDA5D234B1A60052000F0F5F81F4BF0
:400D80009C4664442378DBB21F4A13601F4B52461A601F4B4A461A600520FFF77FFFB5420AD2174BDA5D174B1A60052000F0DCF802E00020FFF72CFF019800F0E3F803B0B1
:400DC0000CBC91469A46F0BDC0F1FF0FC1F1FF0FC2F1FF0FC3F1FF0FC4F1FF0FC5F1FF0FC6F1FF0FC7F1FF0FC8F1FF0FC9F1FF0FCAF1FF0FCBF1FF0FCCF1FF0FCDF1FF0FFA
:400E00006C2600002CFF0B4028FF0B401CFF0B4020FF0B40034B1868C0231B02184000D00120704700010B4010B500F0A7F8044A1368C02109020B43136000F0A3F810BD2C
:400E400000010B4010B500F099F808490A68084B1A408024E40122430A600A6813408022120213430B6000F08DF810BD00010B40FF3FFFFF70B5050000F080F80400FFF786
:400E8000C9FF002803D0FFF7DDFF012100E0002108482840084A1568084B2B40184310601368012901D1FFF7BFFF200000F06AF870BDC0460404040010020B40FBFBFBFF41
:400EC00010B5244B1B685B0715D5234B1B685B070ED5224BD969042001401F4C22688A432260DA698243DA611B69002B00D098470420FFF7BFFF174B1B685B0518D5164B55
:400F00001B685B0510D5154BD9698022D2001140114802688A430260D969114A0A40DA615B69002B00D098478020C000FFF7A2FF084B1B685B030CD5074B1B685B0304D5B8
:400F4000064B9B69002B00D098478020C002FFF791FF10BD10020B40D80000206C010020FFFBFFFF000000000230800804D0C0460138FDD1C046C046C0467047EFF31080DD
:400F800072B6704780F310887047C04610B5274B1B68002B00D09847254B1B685B071DD5244B1B680133812B00D10023224A1268934205D1214B1B682022214B1A7006E04B
:400FC0001E4A1268D2B21F49CA541A4A13601E4B1B681B07E4D104221C4B1A601C4B1B689B0721D51B4B1A681B4B1B689A4213D0194B1B680133802B00D10023174AD25C09
:40100000D2B217490A60144A1360164B1B680F221340082BE6D104E0134A136802218B4313600222114B1A6010BDC04660010020CC0F0640FC03002078030020400306406D
:40104000850400200404002008030640C00F06408C0F064000040020740300207C0300204002064008020640880F0640800F0640F0B55F4656464D464446F0B418239C46B0
:4010800052E0B700C71908233A68DA411300341DA400A2468244172251460968D14135000835AD00AB4683445A46126854005C40A14614000C40A400A0464C4645466C40FB
:4010C0005D462C601C004C401D0015436D006540544625604A400B40DB0053403B60013600E00026032ECCD903236246134002D0022B0DD014E04268036843608368C168C5
:401100008160C3600D4B61460B435340036007E003688268026083604368C2684260C36001235B429846C4446346002BD9D13CBC90469946A246AB46F0BDC0460079379EA1
:4011400010B52F22835C59408154FFF791FF10BD70B505000E001400002307E01A001032AA18F05C11784140117001331F2BF5D921002800FFF7E4FF002307E01A0010329A
:40118000AA18F05C11784140117001331F2BF5D921002800FFF7D4FF70BDC046F0B54F464646C0B483B08146C669F00F49000143760076084846C661C800401840004018B5
:4011C0000021884612E041468900494400230C68002506001F0036196F4100960197A4466044086001218C46E044019841460729E9DD03B00CBC90469946F0BDF0B54F4628
:401200004646C0B485B08446894690460023002116E088000093002301934B461B58029300230393009A019B029E039F92197B4146463458002512196B4166463250013159
:401240000729E6DD19006046FFF7A8FF05B00CBC90469946F0BDC046F0B55F4656464D464446F0B483B081468B46924600239C4626204042C11719E063469B0098465B468F
:4012800042469B58009300230193009A019B12184B4156464746F4590025121BAB414E46F2511800D91701239846C4446346072BE2DD411C4846FFF771FF03B03CBC904674
:4012C0009946A246AB46F0BDF0B55F4656464D464446F0B49DB082460C0093469946402200210CA800F086FF002352460992A2465A4608929B464B46079333E05B469B008A
:40130000089AD35806930023009398461FE05B4643449B0099460CAB4A46D3580393424693005246D058069A0023002100F0E4FE039C002500196941009E002780197941DA
:4013400000910CAB4A46D05001239C46E0444346072BDCDD5B449B000CAA0099995001239C46E344079B9B45C8DB099B002400941D001EE0A300EA1891460CAA9B589B4696
:40138000230008339B00985826220023002100F0B3FE5B46049300230593049A059B80185941009E00278019794100914B4618600134072CDEDD009C21002800FFF7EEFE18
:4013C0001DB03CBC90469946A246AB46F0BDC04610B508230A00FFF777FF10BD10B508230200FFF771FF10BD10B50100FFF7F6FF10BDC046F0B500260CE0B40007193D68DB
:401400000C1923686B4013405D403D6025686B40236001360F2EF0DDF0BDC046F0B55F4656464D464446F0B485B08046132101910021894618E04946890041448C46019EB7
:4014400000270A680023300039008018594102900391B3469246D34458466146086001218C46E1440399019149460729E3DD01994046FFF793FE002700239C46132040420C
:40148000C1170EE0BE0046443468002522002B0012184B41326066461643B4461800D9170137072FEEDD6046002101225242D31712184B41180005B03CBC90469946A24608
:4014C000AB46F0BDF0B583B004000500203540239C4684446346019306006036070080372A0001003800FFF789FE2A0021002800FFF7B2FE320001992000FFF77FFE3200EA
:4015000001993000FFF7A8FE39003000FFF766FF29002000FFF762FF220031000198FFF76DFE220031003000FFF796FE3800FFF75BFF2800FFF758FF2A0039002000FFF711
:401540008BFE0123054A21002800FFF7BDFE3A0029002800FFF752FE03B0F0BD9C260000F0B54F4680B482B004000191070020374023994681440600603605008035300061
:40158000FFF732FF01993000FFF728FF4846FFF72BFF21003800FFF721FF220029002000FFF75AFE29002000FFF718FF02B004BC9146F0BDF0B55F4656464D464446F0B454
:4015C0009DB082468B4691460023159398466BE043469B005A46D358149300230A9309935F4B0B93002441E02500A3005246D6584A46D058149A0023002100F07DFD04967F
:4016000000230593049E059F36184F41099B009300230193009A019BB6185F410997002C02D10B9B73430B93A3004E4AD31858680B9A0023002100F05FFD0696002307932C
:40164000069A079B801859410A9B029300230393029A039B801859410A91002C05DD424B9C466544AD00534658510134072CBBDD159B0E9300230F93099B129300231393BF
:40168000129A139B0E980F9912184B410A991091002111911098119912184B4115935146CA6101239C46E0444346072B90DD002000210025A8461EE043469B009C46D14692
:4016C000E1444B461E68002732003B0012184B41244CA346DC44644664680C9400240D940C9C0D9D121BAB414C4622601800D91701239C46E0444346072BDDDD159B9C4658
:4017000060444342029300250026B04600951CE043469B009946D1444A4612689346114AD3185868029A0023002100F0E5FC5C46002500196941009E002780197941009134
:401740004B46186001239C46E0444346072BDFDD1DB03CBC90469946A246AB46F0BDC0461B7E54129C260000FFFFFF3FF0B587B00700009201930D9C0E9E0FAB1D780023EC
:4017800003E0FA180021117001332F2BF9D9082232492C31380000F00FFD3800083008220C9900F009FD01213800FFF7C9FC002305E0F918E05C0A7842400A7001330F2B71
:4017C000F7D929003800FFF7BBFC002306E0F918E218107C0A7842400A7001330F2BF6D929003800FFF7ACFC3A78142353403B70002306E05A1CB918F05C0B7843400B706D
:4018000013000E2BF6D901213800FFF799FC002306E0F918F218D07B0A7842400A700133042BF6D9009B019C02930394082202A904A800F0C1FC002307E01A1DBA1804A937
:40184000C85C1178414011700133072BF5D901213800FFF775FC07B0F0BDC0469C260000F8B54F464646C0B404000D00160098460023994617E04B461F01002305E0F8188F
:40188000315CE25C4A402A5401330F2BF7D9E9191022200000F090FC02212000FFF750FC01239C46E14443461B099945E3D30F214346194018D04B461B019846002308E0C6
:4018C0004246D018325C9446E25C67467A402A5401339942F4D8002304E0EA184046125CE25401338B42F8D361180A78012353400B70E37B802252425340E3730221200026
:40190000FFF71EFC0CBC90469946F8BD70B582B00600202200F050FC002509E0AC0034190422210001A800F047FC019B23600135072DF3DD02B070BDF0B54F4680B492B078
:4019400005000E00994640239C4684446346019311000AA8FFF7DAFF002303E0EA180021117001337F2BF9D901232B662B6020220AA9019800F020FCFF27002234E0FB17F7
:4019800007210B40DB19DB10F35C494600290ED0F91D0E2902D807218B4308E03900F839072904D87F210B4040210B43DBB2F9174C0F381907210140091B0B410124234031
:4019C0005C42624001992800FFF714FD2800FFF779FD20220AA902A800F0EEFB02A92800FFF7BEFD013F2200002FC8DA01992800FFF700FD12B004BC9146F0BDF0B583B088
:401A000006000F00002509E0AC003C190422210001A800F0D1FB019B23600135072DF3DD20223900300000F0C7FB03B0F0BDC04670B5A8B006001D006846FFF77DFFFD24D9
:401A400008A90EE018A8FFF7C3FC072C03DCEB232341DB0703D508A918A8FFF7BFFC013C18A9002CEEDA18A96846FFF7B7FC6846FFF7D4FC040069463000FFF7BFFF002DB0
:401A800001D1002000E0200028B070BD70B598B004000D001E00110010A8FFF737FF310008A8FFF733FF29006846FFF72FFF6A4608A910A8FFF77EFD002304E008AAD2186D
:401AC0000021117001331F2BF8D9064A343210A908A8FFF76FFD08A92000FFF78FFF18B070BDC0469C260000F0B55F4656464D464446F0B487B004AF82460E00914690B0E4
:401B00001F246C4424092401142353449B46242353447B60814203D11E00180000F055FBFE2303933B6C0293FB6B0193BB6B00933A6B7B6B2000FFF719FE0023984613E099
:401B400043461D01002106E062187319585C13784340137001310F29F6D902212000FFF7EFFA01239C46E0444B461B099845E7D30F204B46184014D043461B019C460021F7
:401B80003300260064469C4607E0721863465B181D5D13786B40137001318142F5D334006646201802781F2353400370E37B802252425340E37302212000FFF7C1FAF8225E
:401BC000F96B2000FFF7C4FA2500103514222900504600F0F1FAFF23039353460293FB6B0193BB6B00933A6B7B6B2000FFF7BEFD4B46320079682000FFF732FE0822F96B06
:401C00002000FFF7A5FA10222900584600F0D4FA0020BD4603B03CBC90469946A246AB46F0BDC04610B5002304E00D4AD2180021117001330F2BF8D9094C226B636B226009
:401C400063600120002112184B412263636300212000FFF775FA10223923E25410BDC04690010020F8B506000F0000240BE0114D00212800FFF764FA2001301810222900E0
:401C800000F09AFA01343B099C42F0D30F231F400DD000210748FFF753FA2401002304E0E2180449C95CB15401339F42F8D8FFF7B9FFF8BD90010020F0B5474680B400AFBA
:401CC00006008846150090B00F246C4424092401002303E0E2180021117001332F2BF9D9294B7433220003CB03C24346A3600023E36001212000FFF723FA002305E0E1186C
:401D0000E85C0A7842400A7001330F2BF7D902212000FFF715FA002306E0E118EA18107C0A7842400A7001330F2BF6D902212000FFF706FA00250AE000212000FFF700FA97
:401D4000280130181022210000F036FA013543461B099D42F0D30F2342461A4090460CD000212000FFF7ECF92D01002303E05A19E15CB15401334345F9D3FFF753FFBD465C
:401D800004BC9046F0BDC0469C260000F0B5474680B404000D009046060024E03023E35C1022D71A07D100213000FFF7C9F900223023E2541037B84500D84746002208E0CD
:401DC0003023E35C9B18F318A85C19784140197001329742F4D83022A35CDB19A354ED194346DB1B98464346002BD7D1002004BC9046F0BD70B590B006000D0014004022D0
:401E00000021684600F0F6F904236A46137067335370023393700C3BD370023313715B3B5371002305E00E226A44D218002111700133312BF7D9082229006B46981D00F0ED
:401E4000BBF9002C0AD020236A461374202221001120684400F0B0F9402203E000236A4613742022002303E0F118002008700133332BF9D969463000FFF788FF002010B02D
:401E800070BDC046F0B5474680B482B080460E0017000500103A274B9A4242D801AA57703B0ADBB293700021D170002B01D0022200E0012201A90A7002324046FFF766FFB0
:401EC00030234246D35C434419781F224A401A704346DB7B8022524253404246D37300240AE000212800FFF72BF9200130181022290000F061F901343B099C42F1D30F2329
:401F00001F4011D000214046FFF71AF92401002303E01A19E95CB1540133BB42F9D3002003E00120404200E0002002B004BC9046F0BDC046EFFF0000F0B58FB004000F0086
:401F400016001D0000220D497C3101A8FFF752FF2022390001A8FFF719FF2022310001A8FFF714FF4022290001A8FFF70FFF2022210001A8FFF786FF0FB0F0BD9C260000D5
:401F8000F0B5474680B498B00600019115002023984690440400203420212000FFF762FE194F3B007C3319002A000BA8FFF722FF202221000BA8FFF7E9FE202201990BA8E1
:401FC000FFF7E4FE202221000BA8FFF75BFF3A005432002321003000FFF72AFD002801D000F0B6F8019B4246310003A8FFF7A4FF2B00220003A92000FFF748FD002018B0E6
:4020000004BC9046F0BDC0469C260000F0B58DB005000E00170007AC14212000FFF722FE0494159B0393149B0293129B139C009301943A0031002800FFF756FD0DB0F0BD7F
:4020400070B504000A00060040360500203520212800FFF731FE0023074A543229002000FFF7E6FC002801D000F072F820222100300000F0A1F870BD9C26000010B5002269
:40208000FFF7B8FE10BDC04610B5FFF77FFE10BD30B591B00C00150040226946FFF7F2FE2A0069462000FFF76BFF11B030BDC04670B58EB006000C001500190001A8FFF70F
:4020C000DDFF00280ED12A00210001A8FFF7DCFF00280AD1129A310001A8FFF7D9FF002808D005E00120404204E00120404201E0012040420EB070BDF0B54F464646C0B429
:402100001604360C9946330005042C0C070C150C63437E436F4365431C0CAD1964199C46A64203D980235B02984647446346250CEF191D044B464A4343432D0C24046419FC
:402140009918C91920000CBC90469946F0BDC04610B5062000F080F80120FEF72DFA0000014B18687047C0463C0100200E4B70B500251E000D4CE41AA410A54204D0AB00D4
:40218000F35898470135F8E700F0E8FA084B00251E00084CE41AA410A54204D0AB00F35898470135F8E770BD68270000682700006827000070270000002310B59A4203D0C5
:4021C000CC5CC4540133F9E710BD10B5884202D98B18984201D3002305E09B1A013A08D3995C8154FAE7934203D0CC5CC4540133F9E710BD03008218934202D019700133BB
:40220000FAE7704770B504000D001F2904D916230360012040421EE0426C002A04D08B00D2181368002B08D1200000F031F82A000100200000F01AF80DE00020012B0AD035
:40224000591C03D117332360013004E00024280014609847200070BD10B5034B01001868FFF7D0FF10BDC0463C010020002370B5064C050008001100236000F027F8431C15
:4022800003D12368002B00D02B6070BD8804002010B500F013F810BD02780B78002A03D0013001319A42F7D0D01A70470023C25C0133002AFBD1581E7047000058220120FF
:4022C000014B40421A6070478804002058220120014B40421A60704788040020000000000000000000000000000000000000000000000000000000000000000000000000ED
:4023000037333635363337353732363937343739000000000000000000000000000000000000000000000000496E20696E746572727570740A000000500000004B000000D7
:402340005F5F736565645F5F000000005F5F7369676E5F5F000000005245414459000000434152445F500000434152445F4E0000474F000000300F40800000310F400003F6
:4023800000400F400004000080300F40EC2500008000000080388172820F02020408120115011E0426012E02300132083301340236043E153F0454185604580459045B0489
:4023C0005F01000802800488052109020B010D280E0210221402172A180419881B011D2A1E011F28231026A727042D802F283204362A3EAA452247444C244E0854025A01C0
:402400005E08600463426E146F01762A772A8740C0FCC2E9C4F5CA70CCE2CEF0D0F0D220D641D80D001301010204030A040A05130614081309130A0C0C400E201110120855
:40244000142016C018E019021B091C031E14261528802A202B042CE03010310C32E03303340F35103A203E013F014036410146B047CE483849FF4AFF4BFF4EF04F44500CF1
:4024800054015604580459045A045B045F0166C06A406B028414858087138C0C8E718F0C900992D094DC952C9622974399719A039B069F08A010A171A240A30EA410A6ACE9
:4024C000AA20B0E0B1C0B30FB41FB530B922BA02BB08BF10C002C540C9FFCA07CBFFCC40CD20CEF0CF05D008D804D904DA04DF01E040E1A8E240E3200040021004800515AC
:4025000009080A080B400E240F421090120815881710184019011A081D101E601F042004210823402408275029012A022D202F043090311C371139083B403E143F014004BA
:402540004410460248804E08510452085404561057015D185E405F0267808040828083018404874289108B019180921494889608970199089B019D209E809F50A404B3104A
:40258000B402B541B630B710C0F5C2FEC4EECA21CCAECEEAD054D220D6F0D880EE800E086D016E0873028702C280DA80DC60E6400A105F088210850195019B08B308C21087
:4025C000D680E080E21010011101000003000F4014300F4031310F406A320F4053330F4009400F400B410F4002600F40821000000008F300C318000041040000003C0042AB
:402600000F00F003F37F0C001C00E30008000000046700180C3C0041FF0000041C1F2C200F00C040008028220000000426030400010C00E021FFFFFF62A0F0410C00000029
:402640000000021204040404000000010000000000004002001030100010101200000000000000000000000000000000030405060708090A0B0C0E0F10111213141516176D
:4026800018191B1C1D1E1F2021222325262728292A2B2E2F303132333435000041DB0100EDD3F55C1A631258D69CF7A2DEF9DE140000000000000000000000000000001035
:4026C000066B7878323536000673627832353608010F9C44E31106A447938568A71B0ED065BEF517D273ECCE3D9A307C1B419903090000000000000000000000000000003D
:402700000000000000000000000000000000000007647262673235360000000000000000000000000000000000000000000000000000000000000000000000000000000056
:4027400000000000000000000000000000000000000000000000000043000000F8B5C046F8BC08BC9E467047410200000D060000F8B5C046F8BC08BC9E4670471902000019
:4027800090270000C0000020800000005003000000000000010000000000E02EC05D00001800000000366E01040404000000000000000000000000000000000000000000BA
:4027C000000000000000000000000000582700000000000000000000000000000000000000000000000000000000000000000000000000000000000000000000000000005A
:40280000000000000000000000000000DC0000200000000000000000000000000000000000000000000000000000000000000000000000000000000000000000000000009C
:402840000000000000000000000000000000000000000000000000000000000000000000000000000000000000000000000000000000000000000000000000000000000058
:402880000000000000000000000000000000000000000000000000000000000000000000000000000000000000000000000000000000000000000000000000000000000018
:4028C00000000000000000000000000000000000000000000000000000000000000000000000000000000000000000000000000000000000000000000000000000000000D8
:402900000000000000000000000000000000000000000000000000000000000000000000000000000000000000000000000000000000000000000000000000000000000097
:0200000490303A
:0200000013BD2E
:0200000490402A
:200000000000000000000000000000000000000000000000000000000000000000000000E0
:0200000490501A
:0C000000000204C81193110104D5255022
:0200000490600A
:0100000001FE
:00000001FF